{
  "_format": "hh-sol-artifact-1",
  "contractName": "HalomOracle",
  "sourceName": "contracts/HalomOracle.sol",
  "abi": [
    {
      "inputs": [
        {
          "internalType": "address",
          "name": "_governance",
          "type": "address"
        },
        {
          "internalType": "uint256",
          "name": "_chainId",
          "type": "uint256"
        }
      ],
      "stateMutability": "nonpayable",
      "type": "constructor"
    },
    {
      "anonymous": false,
      "inputs": [
        {
          "indexed": false,
          "internalType": "uint256",
          "name": "newHOI",
          "type": "uint256"
        },
        {
          "indexed": false,
          "internalType": "int256",
          "name": "supplyDelta",
          "type": "int256"
        },
        {
          "indexed": true,
          "internalType": "uint256",
          "name": "nonce",
          "type": "uint256"
        }
      ],
      "name": "HOISet",
      "type": "event"
    },
    {
      "anonymous": false,
      "inputs": [
        {
          "indexed": false,
          "internalType": "address",
          "name": "account",
          "type": "address"
        }
      ],
      "name": "Paused",
      "type": "event"
    },
    {
      "anonymous": false,
      "inputs": [
        {
          "indexed": true,
          "internalType": "bytes32",
          "name": "role",
          "type": "bytes32"
        },
        {
          "indexed": true,
          "internalType": "bytes32",
          "name": "previousAdminRole",
          "type": "bytes32"
        },
        {
          "indexed": true,
          "internalType": "bytes32",
          "name": "newAdminRole",
          "type": "bytes32"
        }
      ],
      "name": "RoleAdminChanged",
      "type": "event"
    },
    {
      "anonymous": false,
      "inputs": [
        {
          "indexed": true,
          "internalType": "bytes32",
          "name": "role",
          "type": "bytes32"
        },
        {
          "indexed": true,
          "internalType": "address",
          "name": "account",
          "type": "address"
        },
        {
          "indexed": true,
          "internalType": "address",
          "name": "sender",
          "type": "address"
        }
      ],
      "name": "RoleGranted",
      "type": "event"
    },
    {
      "anonymous": false,
      "inputs": [
        {
          "indexed": true,
          "internalType": "bytes32",
          "name": "role",
          "type": "bytes32"
        },
        {
          "indexed": true,
          "internalType": "address",
          "name": "account",
          "type": "address"
        },
        {
          "indexed": true,
          "internalType": "address",
          "name": "sender",
          "type": "address"
        }
      ],
      "name": "RoleRevoked",
      "type": "event"
    },
    {
      "anonymous": false,
      "inputs": [
        {
          "indexed": false,
          "internalType": "address",
          "name": "account",
          "type": "address"
        }
      ],
      "name": "Unpaused",
      "type": "event"
    },
    {
      "inputs": [],
      "name": "DEFAULT_ADMIN_ROLE",
      "outputs": [
        {
          "internalType": "bytes32",
          "name": "",
          "type": "bytes32"
        }
      ],
      "stateMutability": "view",
      "type": "function"
    },
    {
      "inputs": [],
      "name": "GOVERNOR_ROLE",
      "outputs": [
        {
          "internalType": "bytes32",
          "name": "",
          "type": "bytes32"
        }
      ],
      "stateMutability": "view",
      "type": "function"
    },
    {
      "inputs": [],
      "name": "ORACLE_UPDATER_ROLE",
      "outputs": [
        {
          "internalType": "bytes32",
          "name": "",
          "type": "bytes32"
        }
      ],
      "stateMutability": "view",
      "type": "function"
    },
    {
      "inputs": [],
      "name": "chainId",
      "outputs": [
        {
          "internalType": "uint256",
          "name": "",
          "type": "uint256"
        }
      ],
      "stateMutability": "view",
      "type": "function"
    },
    {
      "inputs": [
        {
          "internalType": "bytes32",
          "name": "role",
          "type": "bytes32"
        }
      ],
      "name": "getRoleAdmin",
      "outputs": [
        {
          "internalType": "bytes32",
          "name": "",
          "type": "bytes32"
        }
      ],
      "stateMutability": "view",
      "type": "function"
    },
    {
      "inputs": [
        {
          "internalType": "bytes32",
          "name": "role",
          "type": "bytes32"
        },
        {
          "internalType": "address",
          "name": "account",
          "type": "address"
        }
      ],
      "name": "grantRole",
      "outputs": [],
      "stateMutability": "nonpayable",
      "type": "function"
    },
    {
      "inputs": [],
      "name": "halomToken",
      "outputs": [
        {
          "internalType": "contract IHalomToken",
          "name": "",
          "type": "address"
        }
      ],
      "stateMutability": "view",
      "type": "function"
    },
    {
      "inputs": [
        {
          "internalType": "bytes32",
          "name": "role",
          "type": "bytes32"
        },
        {
          "internalType": "address",
          "name": "account",
          "type": "address"
        }
      ],
      "name": "hasRole",
      "outputs": [
        {
          "internalType": "bool",
          "name": "",
          "type": "bool"
        }
      ],
      "stateMutability": "view",
      "type": "function"
    },
    {
      "inputs": [],
      "name": "lastUpdateTime",
      "outputs": [
        {
          "internalType": "uint256",
          "name": "",
          "type": "uint256"
        }
      ],
      "stateMutability": "view",
      "type": "function"
    },
    {
      "inputs": [],
      "name": "latestHOI",
      "outputs": [
        {
          "internalType": "uint256",
          "name": "",
          "type": "uint256"
        }
      ],
      "stateMutability": "view",
      "type": "function"
    },
    {
      "inputs": [],
      "name": "nonce",
      "outputs": [
        {
          "internalType": "uint256",
          "name": "",
          "type": "uint256"
        }
      ],
      "stateMutability": "view",
      "type": "function"
    },
    {
      "inputs": [],
      "name": "pause",
      "outputs": [],
      "stateMutability": "nonpayable",
      "type": "function"
    },
    {
      "inputs": [],
      "name": "paused",
      "outputs": [
        {
          "internalType": "bool",
          "name": "",
          "type": "bool"
        }
      ],
      "stateMutability": "view",
      "type": "function"
    },
    {
      "inputs": [
        {
          "internalType": "bytes32",
          "name": "role",
          "type": "bytes32"
        },
        {
          "internalType": "address",
          "name": "account",
          "type": "address"
        }
      ],
      "name": "renounceRole",
      "outputs": [],
      "stateMutability": "nonpayable",
      "type": "function"
    },
    {
      "inputs": [
        {
          "internalType": "bytes32",
          "name": "role",
          "type": "bytes32"
        },
        {
          "internalType": "address",
          "name": "account",
          "type": "address"
        }
      ],
      "name": "revokeRole",
      "outputs": [],
      "stateMutability": "nonpayable",
      "type": "function"
    },
    {
      "inputs": [
        {
          "internalType": "uint256",
          "name": "_hoi",
          "type": "uint256"
        },
        {
          "internalType": "uint256",
          "name": "_nonce",
          "type": "uint256"
        }
      ],
      "name": "setHOI",
      "outputs": [],
      "stateMutability": "nonpayable",
      "type": "function"
    },
    {
      "inputs": [
        {
          "internalType": "address",
          "name": "_halomToken",
          "type": "address"
        }
      ],
      "name": "setHalomToken",
      "outputs": [],
      "stateMutability": "nonpayable",
      "type": "function"
    },
    {
      "inputs": [
        {
          "internalType": "bytes4",
          "name": "interfaceId",
          "type": "bytes4"
        }
      ],
      "name": "supportsInterface",
      "outputs": [
        {
          "internalType": "bool",
          "name": "",
          "type": "bool"
        }
      ],
      "stateMutability": "view",
      "type": "function"
    },
    {
      "inputs": [],
      "name": "unpause",
      "outputs": [],
      "stateMutability": "nonpayable",
      "type": "function"
    }
  ],
  "bytecode": "0x60a06040523480156200001157600080fd5b5060405162001dea38038062001dea8339818101604052810190620000379190620002b1565b6000600160006101000a81548160ff02191690831515021790555080608081815250506200006f6000801b83620000a960201b60201c565b620000a17f7935bd0ae54bc31f548c14dba4d37c5c64b3f8ca900cb468fb8abd54d5894f5583620000a960201b60201c565b5050620002f8565b620000bb82826200019a60201b60201c565b6200019657600160008084815260200190815260200160002060000160008373ffffffffffffffffffffffffffffffffffffffff1673ffffffffffffffffffffffffffffffffffffffff16815260200190815260200160002060006101000a81548160ff0219169083151502179055506200013b6200020460201b60201c565b73ffffffffffffffffffffffffffffffffffffffff168173ffffffffffffffffffffffffffffffffffffffff16837f2f8788117e7eff1d82e926ec794901d17c78024a50270940304540a733656f0d60405160405180910390a45b5050565b600080600084815260200190815260200160002060000160008373ffffffffffffffffffffffffffffffffffffffff1673ffffffffffffffffffffffffffffffffffffffff16815260200190815260200160002060009054906101000a900460ff16905092915050565b600033905090565b600080fd5b600073ffffffffffffffffffffffffffffffffffffffff82169050919050565b60006200023e8262000211565b9050919050565b620002508162000231565b81146200025c57600080fd5b50565b600081519050620002708162000245565b92915050565b6000819050919050565b6200028b8162000276565b81146200029757600080fd5b50565b600081519050620002ab8162000280565b92915050565b60008060408385031215620002cb57620002ca6200020c565b5b6000620002db858286016200025f565b9250506020620002ee858286016200029a565b9150509250929050565b608051611ad66200031460003960006109130152611ad66000f3fe608060405234801561001057600080fd5b50600436106101215760003560e01c80635e079d67116100ad578063affed0e011610071578063affed0e0146102d0578063c8f33c91146102ee578063ccc574901461030c578063d547741f1461032a578063f382d8041461034657610121565b80635e079d671461023c5780638456cb591461025a57806391d14854146102645780639a8a059214610294578063a217fddf146102b257610121565b806336568abe116100f457806336568abe146101c05780633f4ba83a146101dc578063567cf953146101e65780635c975abb146102025780635cf10dac1461022057610121565b806301ffc9a7146101265780631732d33014610156578063248a9ca3146101745780632f2ff15d146101a4575b600080fd5b610140600480360381019061013b919061107d565b610364565b60405161014d91906110c5565b60405180910390f35b61015e6103de565b60405161016b91906110f9565b60405180910390f35b61018e60048036038101906101899190611140565b610402565b60405161019b91906110f9565b60405180910390f35b6101be60048036038101906101b991906111cb565b610421565b005b6101da60048036038101906101d591906111cb565b610442565b005b6101e46104c5565b005b61020060048036038101906101fb9190611241565b6104fa565b005b61020a61075a565b60405161021791906110c5565b60405180910390f35b61023a60048036038101906102359190611281565b610771565b005b61024461084e565b604051610251919061130d565b60405180910390f35b610262610872565b005b61027e600480360381019061027991906111cb565b6108a7565b60405161028b91906110c5565b60405180910390f35b61029c610911565b6040516102a99190611337565b60405180910390f35b6102ba610935565b6040516102c791906110f9565b60405180910390f35b6102d861093c565b6040516102e59190611337565b60405180910390f35b6102f6610942565b6040516103039190611337565b60405180910390f35b610314610948565b60405161032191906110f9565b60405180910390f35b610344600480360381019061033f91906111cb565b61096c565b005b61034e61098d565b60405161035b9190611337565b60405180910390f35b60007f7965db0b000000000000000000000000000000000000000000000000000000007bffffffffffffffffffffffffffffffffffffffffffffffffffffffff1916827bffffffffffffffffffffffffffffffffffffffffffffffffffffffff191614806103d757506103d682610993565b5b9050919050565b7f9792fdc19ab98adfa72ab2fa98d342618c661e01c406979c105b31eda87f5e6f81565b6000806000838152602001908152602001600020600101549050919050565b61042a82610402565b610433816109fd565b61043d8383610a11565b505050565b61044a610af1565b73ffffffffffffffffffffffffffffffffffffffff168173ffffffffffffffffffffffffffffffffffffffff16146104b7576040517f08c379a00000000000000000000000000000000000000000000000000000000081526004016104ae906113d5565b60405180910390fd5b6104c18282610af9565b5050565b7f7935bd0ae54bc31f548c14dba4d37c5c64b3f8ca900cb468fb8abd54d5894f556104ef816109fd565b6104f7610bda565b50565b7f9792fdc19ab98adfa72ab2fa98d342618c661e01c406979c105b31eda87f5e6f610524816109fd565b61052c610c3d565b6004548214610570576040517f08c379a000000000000000000000000000000000000000000000000000000000815260040161056790611441565b60405180910390fd5b600060018054906101000a900473ffffffffffffffffffffffffffffffffffffffff1673ffffffffffffffffffffffffffffffffffffffff166318160ddd6040518163ffffffff1660e01b8152600401602060405180830381865afa1580156105dd573d6000803e3d6000fd5b505050506040513d601f19601f820116820180604052508101906106019190611476565b905060008060035403610641576000633b9aca0090508281848861062591906114d2565b61062f9190611543565b610639919061157e565b915050610668565b81600254838761065191906114d2565b61065b9190611543565b610665919061157e565b90505b846002819055504260038190555060046000815480929190610689906115c1565b919050555060018054906101000a900473ffffffffffffffffffffffffffffffffffffffff1673ffffffffffffffffffffffffffffffffffffffff16630ab114f9826040518263ffffffff1660e01b81526004016106e79190611618565b600060405180830381600087803b15801561070157600080fd5b505af1158015610715573d6000803e3d6000fd5b50505050837f303d3574e89f56ef1e084d6cfbc3adef99af0c59df031ab5f932d42ab9f55135868360405161074b929190611633565b60405180910390a25050505050565b6000600160009054906101000a900460ff16905090565b7f7935bd0ae54bc31f548c14dba4d37c5c64b3f8ca900cb468fb8abd54d5894f5561079b816109fd565b600073ffffffffffffffffffffffffffffffffffffffff168273ffffffffffffffffffffffffffffffffffffffff160361080a576040517f08c379a0000000000000000000000000000000000000000000000000000000008152600401610801906116a8565b60405180910390fd5b816001806101000a81548173ffffffffffffffffffffffffffffffffffffffff021916908373ffffffffffffffffffffffffffffffffffffffff1602179055505050565b60018054906101000a900473ffffffffffffffffffffffffffffffffffffffff1681565b7f7935bd0ae54bc31f548c14dba4d37c5c64b3f8ca900cb468fb8abd54d5894f5561089c816109fd565b6108a4610c87565b50565b600080600084815260200190815260200160002060000160008373ffffffffffffffffffffffffffffffffffffffff1673ffffffffffffffffffffffffffffffffffffffff16815260200190815260200160002060009054906101000a900460ff16905092915050565b7f000000000000000000000000000000000000000000000000000000000000000081565b6000801b81565b60045481565b60035481565b7f7935bd0ae54bc31f548c14dba4d37c5c64b3f8ca900cb468fb8abd54d5894f5581565b61097582610402565b61097e816109fd565b6109888383610af9565b505050565b60025481565b60007f01ffc9a7000000000000000000000000000000000000000000000000000000007bffffffffffffffffffffffffffffffffffffffffffffffffffffffff1916827bffffffffffffffffffffffffffffffffffffffffffffffffffffffff1916149050919050565b610a0e81610a09610af1565b610ce9565b50565b610a1b82826108a7565b610aed57600160008084815260200190815260200160002060000160008373ffffffffffffffffffffffffffffffffffffffff1673ffffffffffffffffffffffffffffffffffffffff16815260200190815260200160002060006101000a81548160ff021916908315150217905550610a92610af1565b73ffffffffffffffffffffffffffffffffffffffff168173ffffffffffffffffffffffffffffffffffffffff16837f2f8788117e7eff1d82e926ec794901d17c78024a50270940304540a733656f0d60405160405180910390a45b5050565b600033905090565b610b0382826108a7565b15610bd657600080600084815260200190815260200160002060000160008373ffffffffffffffffffffffffffffffffffffffff1673ffffffffffffffffffffffffffffffffffffffff16815260200190815260200160002060006101000a81548160ff021916908315150217905550610b7b610af1565b73ffffffffffffffffffffffffffffffffffffffff168173ffffffffffffffffffffffffffffffffffffffff16837ff6391f5c32d9c69d2a47ea670b442974b53935d1edc7fd64eb21e047a839171b60405160405180910390a45b5050565b610be2610d6e565b6000600160006101000a81548160ff0219169083151502179055507f5db9ee0a495bf2e6ff9c91a7834c1ba4fdd244a5e8aa4e537bd38aeae4b073aa610c26610af1565b604051610c3391906116d7565b60405180910390a1565b610c4561075a565b15610c85576040517f08c379a0000000000000000000000000000000000000000000000000000000008152600401610c7c9061173e565b60405180910390fd5b565b610c8f610c3d565b60018060006101000a81548160ff0219169083151502179055507f62e78cea01bee320cd4e420270b5ea74000d11b0c9f74754ebdbfc544b05a258610cd2610af1565b604051610cdf91906116d7565b60405180910390a1565b610cf382826108a7565b610d6a57610d0081610db7565b610d0e8360001c6020610de4565b604051602001610d1f929190611867565b6040516020818303038152906040526040517f08c379a0000000000000000000000000000000000000000000000000000000008152600401610d6191906118eb565b60405180910390fd5b5050565b610d7661075a565b610db5576040517f08c379a0000000000000000000000000000000000000000000000000000000008152600401610dac90611959565b60405180910390fd5b565b6060610ddd8273ffffffffffffffffffffffffffffffffffffffff16601460ff16610de4565b9050919050565b606060006002836002610df791906114d2565b610e019190611979565b67ffffffffffffffff811115610e1a57610e196119ad565b5b6040519080825280601f01601f191660200182016040528015610e4c5781602001600182028036833780820191505090505b5090507f300000000000000000000000000000000000000000000000000000000000000081600081518110610e8457610e836119dc565b5b60200101907effffffffffffffffffffffffffffffffffffffffffffffffffffffffffffff1916908160001a9053507f780000000000000000000000000000000000000000000000000000000000000081600181518110610ee857610ee76119dc565b5b60200101907effffffffffffffffffffffffffffffffffffffffffffffffffffffffffffff1916908160001a90535060006001846002610f2891906114d2565b610f329190611979565b90505b6001811115610fd2577f3031323334353637383961626364656600000000000000000000000000000000600f861660108110610f7457610f736119dc565b5b1a60f81b828281518110610f8b57610f8a6119dc565b5b60200101907effffffffffffffffffffffffffffffffffffffffffffffffffffffffffffff1916908160001a905350600485901c945080610fcb90611a0b565b9050610f35565b5060008414611016576040517f08c379a000000000000000000000000000000000000000000000000000000000815260040161100d90611a80565b60405180910390fd5b8091505092915050565b600080fd5b60007fffffffff0000000000000000000000000000000000000000000000000000000082169050919050565b61105a81611025565b811461106557600080fd5b50565b60008135905061107781611051565b92915050565b60006020828403121561109357611092611020565b5b60006110a184828501611068565b91505092915050565b60008115159050919050565b6110bf816110aa565b82525050565b60006020820190506110da60008301846110b6565b92915050565b6000819050919050565b6110f3816110e0565b82525050565b600060208201905061110e60008301846110ea565b92915050565b61111d816110e0565b811461112857600080fd5b50565b60008135905061113a81611114565b92915050565b60006020828403121561115657611155611020565b5b60006111648482850161112b565b91505092915050565b600073ffffffffffffffffffffffffffffffffffffffff82169050919050565b60006111988261116d565b9050919050565b6111a88161118d565b81146111b357600080fd5b50565b6000813590506111c58161119f565b92915050565b600080604083850312156111e2576111e1611020565b5b60006111f08582860161112b565b9250506020611201858286016111b6565b9150509250929050565b6000819050919050565b61121e8161120b565b811461122957600080fd5b50565b60008135905061123b81611215565b92915050565b6000806040838503121561125857611257611020565b5b60006112668582860161122c565b92505060206112778582860161122c565b9150509250929050565b60006020828403121561129757611296611020565b5b60006112a5848285016111b6565b91505092915050565b6000819050919050565b60006112d36112ce6112c98461116d565b6112ae565b61116d565b9050919050565b60006112e5826112b8565b9050919050565b60006112f7826112da565b9050919050565b611307816112ec565b82525050565b600060208201905061132260008301846112fe565b92915050565b6113318161120b565b82525050565b600060208201905061134c6000830184611328565b92915050565b600082825260208201905092915050565b7f416363657373436f6e74726f6c3a2063616e206f6e6c792072656e6f756e636560008201527f20726f6c657320666f722073656c660000000000000000000000000000000000602082015250565b60006113bf602f83611352565b91506113ca82611363565b604082019050919050565b600060208201905081810360008301526113ee816113b2565b9050919050565b7f48616c6f6d4f7261636c653a20496e76616c6964206e6f6e6365000000000000600082015250565b600061142b601a83611352565b9150611436826113f5565b602082019050919050565b6000602082019050818103600083015261145a8161141e565b9050919050565b60008151905061147081611215565b92915050565b60006020828403121561148c5761148b611020565b5b600061149a84828501611461565b91505092915050565b7f4e487b7100000000000000000000000000000000000000000000000000000000600052601160045260246000fd5b60006114dd8261120b565b91506114e88361120b565b92508282026114f68161120b565b9150828204841483151761150d5761150c6114a3565b5b5092915050565b7f4e487b7100000000000000000000000000000000000000000000000000000000600052601260045260246000fd5b600061154e8261120b565b91506115598361120b565b92508261156957611568611514565b5b828204905092915050565b6000819050919050565b600061158982611574565b915061159483611574565b92508282039050818112600084121682821360008512151617156115bb576115ba6114a3565b5b92915050565b60006115cc8261120b565b91507fffffffffffffffffffffffffffffffffffffffffffffffffffffffffffffffff82036115fe576115fd6114a3565b5b600182019050919050565b61161281611574565b82525050565b600060208201905061162d6000830184611609565b92915050565b60006040820190506116486000830185611328565b6116556020830184611609565b9392505050565b7f5a65726f20616464726573730000000000000000000000000000000000000000600082015250565b6000611692600c83611352565b915061169d8261165c565b602082019050919050565b600060208201905081810360008301526116c181611685565b9050919050565b6116d18161118d565b82525050565b60006020820190506116ec60008301846116c8565b92915050565b7f5061757361626c653a2070617573656400000000000000000000000000000000600082015250565b6000611728601083611352565b9150611733826116f2565b602082019050919050565b600060208201905081810360008301526117578161171b565b9050919050565b600081905092915050565b7f416363657373436f6e74726f6c3a206163636f756e7420000000000000000000600082015250565b600061179f60178361175e565b91506117aa82611769565b601782019050919050565b600081519050919050565b60005b838110156117de5780820151818401526020810190506117c3565b60008484015250505050565b60006117f5826117b5565b6117ff818561175e565b935061180f8185602086016117c0565b80840191505092915050565b7f206973206d697373696e6720726f6c6520000000000000000000000000000000600082015250565b600061185160118361175e565b915061185c8261181b565b601182019050919050565b600061187282611792565b915061187e82856117ea565b915061188982611844565b915061189582846117ea565b91508190509392505050565b6000601f19601f8301169050919050565b60006118bd826117b5565b6118c78185611352565b93506118d78185602086016117c0565b6118e0816118a1565b840191505092915050565b6000602082019050818103600083015261190581846118b2565b905092915050565b7f5061757361626c653a206e6f7420706175736564000000000000000000000000600082015250565b6000611943601483611352565b915061194e8261190d565b602082019050919050565b6000602082019050818103600083015261197281611936565b9050919050565b60006119848261120b565b915061198f8361120b565b92508282019050808211156119a7576119a66114a3565b5b92915050565b7f4e487b7100000000000000000000000000000000000000000000000000000000600052604160045260246000fd5b7f4e487b7100000000000000000000000000000000000000000000000000000000600052603260045260246000fd5b6000611a168261120b565b915060008203611a2957611a286114a3565b5b600182039050919050565b7f537472696e67733a20686578206c656e67746820696e73756666696369656e74600082015250565b6000611a6a602083611352565b9150611a7582611a34565b602082019050919050565b60006020820190508181036000830152611a9981611a5d565b905091905056fea2646970667358221220ad010665c5ac0d14bde6b954d4d712e50848df4733bec629233349f7e8e3c7eb64736f6c63430008140033",
  "linkReferences": {},
  "deployedLinkReferences": {}
}