{
  "_format": "hh-sol-artifact-1",
  "contractName": "HalomLPStaking",
  "sourceName": "contracts/HalomLPStaking.sol",
  "abi": [
    {
      "inputs": [
        {
          "internalType": "address",
          "name": "_lpToken",
          "type": "address"
        },
        {
          "internalType": "address",
          "name": "_halomToken",
          "type": "address"
        },
        {
          "internalType": "address",
          "name": "_governor",
          "type": "address"
        },
        {
          "internalType": "address",
          "name": "_rewarder",
          "type": "address"
        }
      ],
      "stateMutability": "nonpayable",
      "type": "constructor"
    },
    {
      "anonymous": false,
      "inputs": [
        {
          "indexed": true,
          "internalType": "address",
          "name": "rewarder",
          "type": "address"
        },
        {
          "indexed": false,
          "internalType": "uint256",
          "name": "amount",
          "type": "uint256"
        }
      ],
      "name": "RewardAdded",
      "type": "event"
    },
    {
      "anonymous": false,
      "inputs": [
        {
          "indexed": true,
          "internalType": "address",
          "name": "user",
          "type": "address"
        },
        {
          "indexed": false,
          "internalType": "uint256",
          "name": "amount",
          "type": "uint256"
        }
      ],
      "name": "RewardClaimed",
      "type": "event"
    },
    {
      "anonymous": false,
      "inputs": [
        {
          "indexed": true,
          "internalType": "bytes32",
          "name": "role",
          "type": "bytes32"
        },
        {
          "indexed": true,
          "internalType": "bytes32",
          "name": "previousAdminRole",
          "type": "bytes32"
        },
        {
          "indexed": true,
          "internalType": "bytes32",
          "name": "newAdminRole",
          "type": "bytes32"
        }
      ],
      "name": "RoleAdminChanged",
      "type": "event"
    },
    {
      "anonymous": false,
      "inputs": [
        {
          "indexed": true,
          "internalType": "bytes32",
          "name": "role",
          "type": "bytes32"
        },
        {
          "indexed": true,
          "internalType": "address",
          "name": "account",
          "type": "address"
        },
        {
          "indexed": true,
          "internalType": "address",
          "name": "sender",
          "type": "address"
        }
      ],
      "name": "RoleGranted",
      "type": "event"
    },
    {
      "anonymous": false,
      "inputs": [
        {
          "indexed": true,
          "internalType": "bytes32",
          "name": "role",
          "type": "bytes32"
        },
        {
          "indexed": true,
          "internalType": "address",
          "name": "account",
          "type": "address"
        },
        {
          "indexed": true,
          "internalType": "address",
          "name": "sender",
          "type": "address"
        }
      ],
      "name": "RoleRevoked",
      "type": "event"
    },
    {
      "anonymous": false,
      "inputs": [
        {
          "indexed": true,
          "internalType": "address",
          "name": "user",
          "type": "address"
        },
        {
          "indexed": false,
          "internalType": "uint256",
          "name": "amount",
          "type": "uint256"
        }
      ],
      "name": "Staked",
      "type": "event"
    },
    {
      "anonymous": false,
      "inputs": [
        {
          "indexed": true,
          "internalType": "address",
          "name": "user",
          "type": "address"
        },
        {
          "indexed": false,
          "internalType": "uint256",
          "name": "amount",
          "type": "uint256"
        }
      ],
      "name": "Unstaked",
      "type": "event"
    },
    {
      "inputs": [],
      "name": "DEFAULT_ADMIN_ROLE",
      "outputs": [
        {
          "internalType": "bytes32",
          "name": "",
          "type": "bytes32"
        }
      ],
      "stateMutability": "view",
      "type": "function"
    },
    {
      "inputs": [],
      "name": "GOVERNOR_ROLE",
      "outputs": [
        {
          "internalType": "bytes32",
          "name": "",
          "type": "bytes32"
        }
      ],
      "stateMutability": "view",
      "type": "function"
    },
    {
      "inputs": [],
      "name": "REWARDER_ROLE",
      "outputs": [
        {
          "internalType": "bytes32",
          "name": "",
          "type": "bytes32"
        }
      ],
      "stateMutability": "view",
      "type": "function"
    },
    {
      "inputs": [
        {
          "internalType": "uint256",
          "name": "_amount",
          "type": "uint256"
        }
      ],
      "name": "addRewards",
      "outputs": [],
      "stateMutability": "nonpayable",
      "type": "function"
    },
    {
      "inputs": [],
      "name": "claimRewards",
      "outputs": [],
      "stateMutability": "nonpayable",
      "type": "function"
    },
    {
      "inputs": [
        {
          "internalType": "bytes32",
          "name": "role",
          "type": "bytes32"
        }
      ],
      "name": "getRoleAdmin",
      "outputs": [
        {
          "internalType": "bytes32",
          "name": "",
          "type": "bytes32"
        }
      ],
      "stateMutability": "view",
      "type": "function"
    },
    {
      "inputs": [
        {
          "internalType": "bytes32",
          "name": "role",
          "type": "bytes32"
        },
        {
          "internalType": "address",
          "name": "account",
          "type": "address"
        }
      ],
      "name": "grantRole",
      "outputs": [],
      "stateMutability": "nonpayable",
      "type": "function"
    },
    {
      "inputs": [],
      "name": "halomToken",
      "outputs": [
        {
          "internalType": "contract IERC20",
          "name": "",
          "type": "address"
        }
      ],
      "stateMutability": "view",
      "type": "function"
    },
    {
      "inputs": [
        {
          "internalType": "bytes32",
          "name": "role",
          "type": "bytes32"
        },
        {
          "internalType": "address",
          "name": "account",
          "type": "address"
        }
      ],
      "name": "hasRole",
      "outputs": [
        {
          "internalType": "bool",
          "name": "",
          "type": "bool"
        }
      ],
      "stateMutability": "view",
      "type": "function"
    },
    {
      "inputs": [],
      "name": "lpToken",
      "outputs": [
        {
          "internalType": "contract IERC20",
          "name": "",
          "type": "address"
        }
      ],
      "stateMutability": "view",
      "type": "function"
    },
    {
      "inputs": [
        {
          "internalType": "address",
          "name": "_account",
          "type": "address"
        }
      ],
      "name": "pendingRewards",
      "outputs": [
        {
          "internalType": "uint256",
          "name": "",
          "type": "uint256"
        }
      ],
      "stateMutability": "view",
      "type": "function"
    },
    {
      "inputs": [
        {
          "internalType": "bytes32",
          "name": "role",
          "type": "bytes32"
        },
        {
          "internalType": "address",
          "name": "account",
          "type": "address"
        }
      ],
      "name": "renounceRole",
      "outputs": [],
      "stateMutability": "nonpayable",
      "type": "function"
    },
    {
      "inputs": [
        {
          "internalType": "bytes32",
          "name": "role",
          "type": "bytes32"
        },
        {
          "internalType": "address",
          "name": "account",
          "type": "address"
        }
      ],
      "name": "revokeRole",
      "outputs": [],
      "stateMutability": "nonpayable",
      "type": "function"
    },
    {
      "inputs": [
        {
          "internalType": "address",
          "name": "",
          "type": "address"
        }
      ],
      "name": "rewardDebt",
      "outputs": [
        {
          "internalType": "uint256",
          "name": "",
          "type": "uint256"
        }
      ],
      "stateMutability": "view",
      "type": "function"
    },
    {
      "inputs": [],
      "name": "rewardsPerShare",
      "outputs": [
        {
          "internalType": "uint256",
          "name": "",
          "type": "uint256"
        }
      ],
      "stateMutability": "view",
      "type": "function"
    },
    {
      "inputs": [
        {
          "internalType": "uint256",
          "name": "_amount",
          "type": "uint256"
        }
      ],
      "name": "stake",
      "outputs": [],
      "stateMutability": "nonpayable",
      "type": "function"
    },
    {
      "inputs": [
        {
          "internalType": "address",
          "name": "",
          "type": "address"
        }
      ],
      "name": "stakedBalance",
      "outputs": [
        {
          "internalType": "uint256",
          "name": "",
          "type": "uint256"
        }
      ],
      "stateMutability": "view",
      "type": "function"
    },
    {
      "inputs": [
        {
          "internalType": "bytes4",
          "name": "interfaceId",
          "type": "bytes4"
        }
      ],
      "name": "supportsInterface",
      "outputs": [
        {
          "internalType": "bool",
          "name": "",
          "type": "bool"
        }
      ],
      "stateMutability": "view",
      "type": "function"
    },
    {
      "inputs": [],
      "name": "totalStaked",
      "outputs": [
        {
          "internalType": "uint256",
          "name": "",
          "type": "uint256"
        }
      ],
      "stateMutability": "view",
      "type": "function"
    },
    {
      "inputs": [
        {
          "internalType": "uint256",
          "name": "_amount",
          "type": "uint256"
        }
      ],
      "name": "unstake",
      "outputs": [],
      "stateMutability": "nonpayable",
      "type": "function"
    }
  ],
  "bytecode": "0x60c06040523480156200001157600080fd5b5060405162002d1238038062002d128339818101604052810190620000379190620003da565b60018081905550600073ffffffffffffffffffffffffffffffffffffffff168473ffffffffffffffffffffffffffffffffffffffff1603620000b0576040517f08c379a0000000000000000000000000000000000000000000000000000000008152600401620000a790620004ad565b60405180910390fd5b600073ffffffffffffffffffffffffffffffffffffffff168373ffffffffffffffffffffffffffffffffffffffff160362000122576040517f08c379a000000000000000000000000000000000000000000000000000000000815260040162000119906200051f565b60405180910390fd5b8373ffffffffffffffffffffffffffffffffffffffff1660808173ffffffffffffffffffffffffffffffffffffffff16815250508273ffffffffffffffffffffffffffffffffffffffff1660a08173ffffffffffffffffffffffffffffffffffffffff16815250506200019f6000801b836200020d60201b60201c565b620001d17f7935bd0ae54bc31f548c14dba4d37c5c64b3f8ca900cb468fb8abd54d5894f55836200020d60201b60201c565b620002037fbeec13769b5f410b0584f69811bfd923818456d5edcf426b0e31cf90eed7a3f6826200020d60201b60201c565b5050505062000541565b6200021f8282620002fe60201b60201c565b620002fa57600160008084815260200190815260200160002060000160008373ffffffffffffffffffffffffffffffffffffffff1673ffffffffffffffffffffffffffffffffffffffff16815260200190815260200160002060006101000a81548160ff0219169083151502179055506200029f6200036860201b60201c565b73ffffffffffffffffffffffffffffffffffffffff168173ffffffffffffffffffffffffffffffffffffffff16837f2f8788117e7eff1d82e926ec794901d17c78024a50270940304540a733656f0d60405160405180910390a45b5050565b600080600084815260200190815260200160002060000160008373ffffffffffffffffffffffffffffffffffffffff1673ffffffffffffffffffffffffffffffffffffffff16815260200190815260200160002060009054906101000a900460ff16905092915050565b600033905090565b600080fd5b600073ffffffffffffffffffffffffffffffffffffffff82169050919050565b6000620003a28262000375565b9050919050565b620003b48162000395565b8114620003c057600080fd5b50565b600081519050620003d481620003a9565b92915050565b60008060008060808587031215620003f757620003f662000370565b5b60006200040787828801620003c3565b94505060206200041a87828801620003c3565b93505060406200042d87828801620003c3565b92505060606200044087828801620003c3565b91505092959194509250565b600082825260208201905092915050565b7f4c5020746f6b656e206973207a65726f20616464726573730000000000000000600082015250565b6000620004956018836200044c565b9150620004a2826200045d565b602082019050919050565b60006020820190508181036000830152620004c88162000486565b9050919050565b7f48616c6f6d20746f6b656e206973207a65726f20616464726573730000000000600082015250565b600062000507601b836200044c565b91506200051482620004cf565b602082019050919050565b600060208201905081810360008301526200053a81620004f8565b9050919050565b60805160a051612781620005916000396000818161053501528181610a6301528181610bbf01528181610d7f015261108f01526000818161070301528181610be30152610ecc01526127816000f3fe608060405234801561001057600080fd5b506004361061012c5760003560e01c806360217267116100ad578063a694fc3a11610071578063a694fc3a14610345578063beceed3914610361578063c7e1d0b11461037d578063ccc574901461039b578063d547741f146103b95761012c565b8063602172671461028b578063817b1cd2146102bb5780638580cf76146102d957806391d14854146102f7578063a217fddf146103275761012c565b806336568abe116100f457806336568abe146101f9578063372500ab146102155780635873eb9b1461021f5780635e079d671461024f5780635fcbd2851461026d5761012c565b806301ffc9a714610131578063248a9ca3146101615780632e17de78146101915780632f2ff15d146101ad57806331d7a262146101c9575b600080fd5b61014b60048036038101906101469190611b39565b6103d5565b6040516101589190611b81565b60405180910390f35b61017b60048036038101906101769190611bd2565b61044f565b6040516101889190611c0e565b60405180910390f35b6101ab60048036038101906101a69190611c5f565b61046e565b005b6101c760048036038101906101c29190611cea565b610845565b005b6101e360048036038101906101de9190611d2a565b610866565b6040516101f09190611d66565b60405180910390f35b610213600480360381019061020e9190611cea565b610919565b005b61021d61099c565b005b61023960048036038101906102349190611d2a565b610ba5565b6040516102469190611d66565b60405180910390f35b610257610bbd565b6040516102649190611de0565b60405180910390f35b610275610be1565b6040516102829190611de0565b60405180910390f35b6102a560048036038101906102a09190611d2a565b610c05565b6040516102b29190611d66565b60405180910390f35b6102c3610c1d565b6040516102d09190611d66565b60405180910390f35b6102e1610c23565b6040516102ee9190611c0e565b60405180910390f35b610311600480360381019061030c9190611cea565b610c47565b60405161031e9190611b81565b60405180910390f35b61032f610cb1565b60405161033c9190611c0e565b60405180910390f35b61035f600480360381019061035a9190611c5f565b610cb8565b005b61037b60048036038101906103769190611c5f565b61100f565b005b610385611160565b6040516103929190611d66565b60405180910390f35b6103a3611166565b6040516103b09190611c0e565b60405180910390f35b6103d360048036038101906103ce9190611cea565b61118a565b005b60007f7965db0b000000000000000000000000000000000000000000000000000000007bffffffffffffffffffffffffffffffffffffffffffffffffffffffff1916827bffffffffffffffffffffffffffffffffffffffffffffffffffffffff191614806104485750610447826111ab565b5b9050919050565b6000806000838152602001908152602001600020600101549050919050565b610476611215565b336000600560008373ffffffffffffffffffffffffffffffffffffffff1673ffffffffffffffffffffffffffffffffffffffff16815260200190815260200160002054670de0b6b3a7640000600454600360008673ffffffffffffffffffffffffffffffffffffffff1673ffffffffffffffffffffffffffffffffffffffff1681526020019081526020016000205461050f9190611e2a565b6105199190611e9b565b6105239190611ecc565b905060008111156105c85761057982827f000000000000000000000000000000000000000000000000000000000000000073ffffffffffffffffffffffffffffffffffffffff166112649092919063ffffffff16565b8173ffffffffffffffffffffffffffffffffffffffff167f106f923f993c2149d49b4255ff723acafa1f2d94393f561d3eda32ae348f7241826040516105bf9190611d66565b60405180910390a25b6000831161060b576040517f08c379a000000000000000000000000000000000000000000000000000000000815260040161060290611f5d565b60405180910390fd5b82600360003373ffffffffffffffffffffffffffffffffffffffff1673ffffffffffffffffffffffffffffffffffffffff16815260200190815260200160002054101561068d576040517f08c379a000000000000000000000000000000000000000000000000000000000815260040161068490611fc9565b60405180910390fd5b826002600082825461069f9190611ecc565b9250508190555082600360003373ffffffffffffffffffffffffffffffffffffffff1673ffffffffffffffffffffffffffffffffffffffff16815260200190815260200160002060008282546106f59190611ecc565b9250508190555061074733847f000000000000000000000000000000000000000000000000000000000000000073ffffffffffffffffffffffffffffffffffffffff166112649092919063ffffffff16565b3373ffffffffffffffffffffffffffffffffffffffff167f0f5bb82176feb1b5e747e28471aa92156a04d9f3ab9f45f28e2d704232b93f758460405161078d9190611d66565b60405180910390a2670de0b6b3a7640000600454600360008573ffffffffffffffffffffffffffffffffffffffff1673ffffffffffffffffffffffffffffffffffffffff168152602001908152602001600020546107eb9190611e2a565b6107f59190611e9b565b600560008473ffffffffffffffffffffffffffffffffffffffff1673ffffffffffffffffffffffffffffffffffffffff1681526020019081526020016000208190555050506108426112ea565b50565b61084e8261044f565b610857816112f3565b6108618383611307565b505050565b6000600560008373ffffffffffffffffffffffffffffffffffffffff1673ffffffffffffffffffffffffffffffffffffffff16815260200190815260200160002054670de0b6b3a7640000600454600360008673ffffffffffffffffffffffffffffffffffffffff1673ffffffffffffffffffffffffffffffffffffffff168152602001908152602001600020546108fe9190611e2a565b6109089190611e9b565b6109129190611ecc565b9050919050565b6109216113e7565b73ffffffffffffffffffffffffffffffffffffffff168173ffffffffffffffffffffffffffffffffffffffff161461098e576040517f08c379a00000000000000000000000000000000000000000000000000000000081526004016109859061205b565b60405180910390fd5b61099882826113ef565b5050565b6109a4611215565b336000600560008373ffffffffffffffffffffffffffffffffffffffff1673ffffffffffffffffffffffffffffffffffffffff16815260200190815260200160002054670de0b6b3a7640000600454600360008673ffffffffffffffffffffffffffffffffffffffff1673ffffffffffffffffffffffffffffffffffffffff16815260200190815260200160002054610a3d9190611e2a565b610a479190611e9b565b610a519190611ecc565b90506000811115610af657610aa782827f000000000000000000000000000000000000000000000000000000000000000073ffffffffffffffffffffffffffffffffffffffff166112649092919063ffffffff16565b8173ffffffffffffffffffffffffffffffffffffffff167f106f923f993c2149d49b4255ff723acafa1f2d94393f561d3eda32ae348f724182604051610aed9190611d66565b60405180910390a25b670de0b6b3a7640000600454600360008573ffffffffffffffffffffffffffffffffffffffff1673ffffffffffffffffffffffffffffffffffffffff16815260200190815260200160002054610b4c9190611e2a565b610b569190611e9b565b600560008473ffffffffffffffffffffffffffffffffffffffff1673ffffffffffffffffffffffffffffffffffffffff168152602001908152602001600020819055505050610ba36112ea565b565b60056020528060005260406000206000915090505481565b7f000000000000000000000000000000000000000000000000000000000000000081565b7f000000000000000000000000000000000000000000000000000000000000000081565b60036020528060005260406000206000915090505481565b60025481565b7fbeec13769b5f410b0584f69811bfd923818456d5edcf426b0e31cf90eed7a3f681565b600080600084815260200190815260200160002060000160008373ffffffffffffffffffffffffffffffffffffffff1673ffffffffffffffffffffffffffffffffffffffff16815260200190815260200160002060009054906101000a900460ff16905092915050565b6000801b81565b610cc0611215565b336000600560008373ffffffffffffffffffffffffffffffffffffffff1673ffffffffffffffffffffffffffffffffffffffff16815260200190815260200160002054670de0b6b3a7640000600454600360008673ffffffffffffffffffffffffffffffffffffffff1673ffffffffffffffffffffffffffffffffffffffff16815260200190815260200160002054610d599190611e2a565b610d639190611e9b565b610d6d9190611ecc565b90506000811115610e1257610dc382827f000000000000000000000000000000000000000000000000000000000000000073ffffffffffffffffffffffffffffffffffffffff166112649092919063ffffffff16565b8173ffffffffffffffffffffffffffffffffffffffff167f106f923f993c2149d49b4255ff723acafa1f2d94393f561d3eda32ae348f724182604051610e099190611d66565b60405180910390a25b60008311610e55576040517f08c379a0000000000000000000000000000000000000000000000000000000008152600401610e4c906120c7565b60405180910390fd5b8260026000828254610e6791906120e7565b9250508190555082600360003373ffffffffffffffffffffffffffffffffffffffff1673ffffffffffffffffffffffffffffffffffffffff1681526020019081526020016000206000828254610ebd91906120e7565b92505081905550610f113330857f000000000000000000000000000000000000000000000000000000000000000073ffffffffffffffffffffffffffffffffffffffff166114d0909392919063ffffffff16565b3373ffffffffffffffffffffffffffffffffffffffff167f9e71bc8eea02a63969f509818f2dafb9254532904319f9dbda79b67bd34a5f3d84604051610f579190611d66565b60405180910390a2670de0b6b3a7640000600454600360008573ffffffffffffffffffffffffffffffffffffffff1673ffffffffffffffffffffffffffffffffffffffff16815260200190815260200160002054610fb59190611e2a565b610fbf9190611e9b565b600560008473ffffffffffffffffffffffffffffffffffffffff1673ffffffffffffffffffffffffffffffffffffffff16815260200190815260200160002081905550505061100c6112ea565b50565b7fbeec13769b5f410b0584f69811bfd923818456d5edcf426b0e31cf90eed7a3f6611039816112f3565b6000821161107c576040517f08c379a000000000000000000000000000000000000000000000000000000000815260040161107390612167565b60405180910390fd5b6000600254031561115c576110d43330847f000000000000000000000000000000000000000000000000000000000000000073ffffffffffffffffffffffffffffffffffffffff166114d0909392919063ffffffff16565b600254670de0b6b3a7640000836110eb9190611e2a565b6110f59190611e9b565b6004600082825461110691906120e7565b925050819055503373ffffffffffffffffffffffffffffffffffffffff167fac24935fd910bc682b5ccb1a07b718cadf8cf2f6d1404c4f3ddc3662dae40e29836040516111539190611d66565b60405180910390a25b5050565b60045481565b7f7935bd0ae54bc31f548c14dba4d37c5c64b3f8ca900cb468fb8abd54d5894f5581565b6111938261044f565b61119c816112f3565b6111a683836113ef565b505050565b60007f01ffc9a7000000000000000000000000000000000000000000000000000000007bffffffffffffffffffffffffffffffffffffffffffffffffffffffff1916827bffffffffffffffffffffffffffffffffffffffffffffffffffffffff1916149050919050565b60026001540361125a576040517f08c379a0000000000000000000000000000000000000000000000000000000008152600401611251906121d3565b60405180910390fd5b6002600181905550565b6112e58363a9059cbb60e01b8484604051602401611283929190612202565b604051602081830303815290604052907bffffffffffffffffffffffffffffffffffffffffffffffffffffffff19166020820180517bffffffffffffffffffffffffffffffffffffffffffffffffffffffff8381831617835250505050611559565b505050565b60018081905550565b611304816112ff6113e7565b611621565b50565b6113118282610c47565b6113e357600160008084815260200190815260200160002060000160008373ffffffffffffffffffffffffffffffffffffffff1673ffffffffffffffffffffffffffffffffffffffff16815260200190815260200160002060006101000a81548160ff0219169083151502179055506113886113e7565b73ffffffffffffffffffffffffffffffffffffffff168173ffffffffffffffffffffffffffffffffffffffff16837f2f8788117e7eff1d82e926ec794901d17c78024a50270940304540a733656f0d60405160405180910390a45b5050565b600033905090565b6113f98282610c47565b156114cc57600080600084815260200190815260200160002060000160008373ffffffffffffffffffffffffffffffffffffffff1673ffffffffffffffffffffffffffffffffffffffff16815260200190815260200160002060006101000a81548160ff0219169083151502179055506114716113e7565b73ffffffffffffffffffffffffffffffffffffffff168173ffffffffffffffffffffffffffffffffffffffff16837ff6391f5c32d9c69d2a47ea670b442974b53935d1edc7fd64eb21e047a839171b60405160405180910390a45b5050565b611553846323b872dd60e01b8585856040516024016114f19392919061222b565b604051602081830303815290604052907bffffffffffffffffffffffffffffffffffffffffffffffffffffffff19166020820180517bffffffffffffffffffffffffffffffffffffffffffffffffffffffff8381831617835250505050611559565b50505050565b60006115bb826040518060400160405280602081526020017f5361666545524332303a206c6f772d6c6576656c2063616c6c206661696c65648152508573ffffffffffffffffffffffffffffffffffffffff166116a69092919063ffffffff16565b90506000815114806115dd5750808060200190518101906115dc919061228e565b5b61161c576040517f08c379a00000000000000000000000000000000000000000000000000000000081526004016116139061232d565b60405180910390fd5b505050565b61162b8282610c47565b6116a257611638816116be565b6116468360001c60206116eb565b604051602001611657929190612456565b6040516020818303038152906040526040517f08c379a000000000000000000000000000000000000000000000000000000000815260040161169991906124da565b60405180910390fd5b5050565b60606116b58484600085611927565b90509392505050565b60606116e48273ffffffffffffffffffffffffffffffffffffffff16601460ff166116eb565b9050919050565b6060600060028360026116fe9190611e2a565b61170891906120e7565b67ffffffffffffffff811115611721576117206124fc565b5b6040519080825280601f01601f1916602001820160405280156117535781602001600182028036833780820191505090505b5090507f30000000000000000000000000000000000000000000000000000000000000008160008151811061178b5761178a61252b565b5b60200101907effffffffffffffffffffffffffffffffffffffffffffffffffffffffffffff1916908160001a9053507f7800000000000000000000000000000000000000000000000000000000000000816001815181106117ef576117ee61252b565b5b60200101907effffffffffffffffffffffffffffffffffffffffffffffffffffffffffffff1916908160001a9053506000600184600261182f9190611e2a565b61183991906120e7565b90505b60018111156118d9577f3031323334353637383961626364656600000000000000000000000000000000600f86166010811061187b5761187a61252b565b5b1a60f81b8282815181106118925761189161252b565b5b60200101907effffffffffffffffffffffffffffffffffffffffffffffffffffffffffffff1916908160001a905350600485901c9450806118d29061255a565b905061183c565b506000841461191d576040517f08c379a0000000000000000000000000000000000000000000000000000000008152600401611914906125cf565b60405180910390fd5b8091505092915050565b60608247101561196c576040517f08c379a000000000000000000000000000000000000000000000000000000000815260040161196390612661565b60405180910390fd5b6000808673ffffffffffffffffffffffffffffffffffffffff16858760405161199591906126c8565b60006040518083038185875af1925050503d80600081146119d2576040519150601f19603f3d011682016040523d82523d6000602084013e6119d7565b606091505b50915091506119e8878383876119f4565b92505050949350505050565b60608315611a56576000835103611a4e57611a0e85611a69565b611a4d576040517f08c379a0000000000000000000000000000000000000000000000000000000008152600401611a449061272b565b60405180910390fd5b5b829050611a61565b611a608383611a8c565b5b949350505050565b6000808273ffffffffffffffffffffffffffffffffffffffff163b119050919050565b600082511115611a9f5781518083602001fd5b806040517f08c379a0000000000000000000000000000000000000000000000000000000008152600401611ad391906124da565b60405180910390fd5b600080fd5b60007fffffffff0000000000000000000000000000000000000000000000000000000082169050919050565b611b1681611ae1565b8114611b2157600080fd5b50565b600081359050611b3381611b0d565b92915050565b600060208284031215611b4f57611b4e611adc565b5b6000611b5d84828501611b24565b91505092915050565b60008115159050919050565b611b7b81611b66565b82525050565b6000602082019050611b966000830184611b72565b92915050565b6000819050919050565b611baf81611b9c565b8114611bba57600080fd5b50565b600081359050611bcc81611ba6565b92915050565b600060208284031215611be857611be7611adc565b5b6000611bf684828501611bbd565b91505092915050565b611c0881611b9c565b82525050565b6000602082019050611c236000830184611bff565b92915050565b6000819050919050565b611c3c81611c29565b8114611c4757600080fd5b50565b600081359050611c5981611c33565b92915050565b600060208284031215611c7557611c74611adc565b5b6000611c8384828501611c4a565b91505092915050565b600073ffffffffffffffffffffffffffffffffffffffff82169050919050565b6000611cb782611c8c565b9050919050565b611cc781611cac565b8114611cd257600080fd5b50565b600081359050611ce481611cbe565b92915050565b60008060408385031215611d0157611d00611adc565b5b6000611d0f85828601611bbd565b9250506020611d2085828601611cd5565b9150509250929050565b600060208284031215611d4057611d3f611adc565b5b6000611d4e84828501611cd5565b91505092915050565b611d6081611c29565b82525050565b6000602082019050611d7b6000830184611d57565b92915050565b6000819050919050565b6000611da6611da1611d9c84611c8c565b611d81565b611c8c565b9050919050565b6000611db882611d8b565b9050919050565b6000611dca82611dad565b9050919050565b611dda81611dbf565b82525050565b6000602082019050611df56000830184611dd1565b92915050565b7f4e487b7100000000000000000000000000000000000000000000000000000000600052601160045260246000fd5b6000611e3582611c29565b9150611e4083611c29565b9250828202611e4e81611c29565b91508282048414831517611e6557611e64611dfb565b5b5092915050565b7f4e487b7100000000000000000000000000000000000000000000000000000000600052601260045260246000fd5b6000611ea682611c29565b9150611eb183611c29565b925082611ec157611ec0611e6c565b5b828204905092915050565b6000611ed782611c29565b9150611ee283611c29565b9250828203905081811115611efa57611ef9611dfb565b5b92915050565b600082825260208201905092915050565b7f43616e6e6f7420756e7374616b65203000000000000000000000000000000000600082015250565b6000611f47601083611f00565b9150611f5282611f11565b602082019050919050565b60006020820190508181036000830152611f7681611f3a565b9050919050565b7f496e73756666696369656e74207374616b65642062616c616e63650000000000600082015250565b6000611fb3601b83611f00565b9150611fbe82611f7d565b602082019050919050565b60006020820190508181036000830152611fe281611fa6565b9050919050565b7f416363657373436f6e74726f6c3a2063616e206f6e6c792072656e6f756e636560008201527f20726f6c657320666f722073656c660000000000000000000000000000000000602082015250565b6000612045602f83611f00565b915061205082611fe9565b604082019050919050565b6000602082019050818103600083015261207481612038565b9050919050565b7f43616e6e6f74207374616b652030000000000000000000000000000000000000600082015250565b60006120b1600e83611f00565b91506120bc8261207b565b602082019050919050565b600060208201905081810360008301526120e0816120a4565b9050919050565b60006120f282611c29565b91506120fd83611c29565b925082820190508082111561211557612114611dfb565b5b92915050565b7f43616e6e6f742061646420302072657761726473000000000000000000000000600082015250565b6000612151601483611f00565b915061215c8261211b565b602082019050919050565b6000602082019050818103600083015261218081612144565b9050919050565b7f5265656e7472616e637947756172643a207265656e7472616e742063616c6c00600082015250565b60006121bd601f83611f00565b91506121c882612187565b602082019050919050565b600060208201905081810360008301526121ec816121b0565b9050919050565b6121fc81611cac565b82525050565b600060408201905061221760008301856121f3565b6122246020830184611d57565b9392505050565b600060608201905061224060008301866121f3565b61224d60208301856121f3565b61225a6040830184611d57565b949350505050565b61226b81611b66565b811461227657600080fd5b50565b60008151905061228881612262565b92915050565b6000602082840312156122a4576122a3611adc565b5b60006122b284828501612279565b91505092915050565b7f5361666545524332303a204552433230206f7065726174696f6e20646964206e60008201527f6f74207375636365656400000000000000000000000000000000000000000000602082015250565b6000612317602a83611f00565b9150612322826122bb565b604082019050919050565b600060208201905081810360008301526123468161230a565b9050919050565b600081905092915050565b7f416363657373436f6e74726f6c3a206163636f756e7420000000000000000000600082015250565b600061238e60178361234d565b915061239982612358565b601782019050919050565b600081519050919050565b60005b838110156123cd5780820151818401526020810190506123b2565b60008484015250505050565b60006123e4826123a4565b6123ee818561234d565b93506123fe8185602086016123af565b80840191505092915050565b7f206973206d697373696e6720726f6c6520000000000000000000000000000000600082015250565b600061244060118361234d565b915061244b8261240a565b601182019050919050565b600061246182612381565b915061246d82856123d9565b915061247882612433565b915061248482846123d9565b91508190509392505050565b6000601f19601f8301169050919050565b60006124ac826123a4565b6124b68185611f00565b93506124c68185602086016123af565b6124cf81612490565b840191505092915050565b600060208201905081810360008301526124f481846124a1565b905092915050565b7f4e487b7100000000000000000000000000000000000000000000000000000000600052604160045260246000fd5b7f4e487b7100000000000000000000000000000000000000000000000000000000600052603260045260246000fd5b600061256582611c29565b91506000820361257857612577611dfb565b5b600182039050919050565b7f537472696e67733a20686578206c656e67746820696e73756666696369656e74600082015250565b60006125b9602083611f00565b91506125c482612583565b602082019050919050565b600060208201905081810360008301526125e8816125ac565b9050919050565b7f416464726573733a20696e73756666696369656e742062616c616e636520666f60008201527f722063616c6c0000000000000000000000000000000000000000000000000000602082015250565b600061264b602683611f00565b9150612656826125ef565b604082019050919050565b6000602082019050818103600083015261267a8161263e565b9050919050565b600081519050919050565b600081905092915050565b60006126a282612681565b6126ac818561268c565b93506126bc8185602086016123af565b80840191505092915050565b60006126d48284612697565b915081905092915050565b7f416464726573733a2063616c6c20746f206e6f6e2d636f6e7472616374000000600082015250565b6000612715601d83611f00565b9150612720826126df565b602082019050919050565b6000602082019050818103600083015261274481612708565b905091905056fea2646970667358221220df694ec7b372ec65b12e39659525b1eec7819ef4f26712f0e0269713d46f748c64736f6c63430008140033",
  "linkReferences": {},
  "deployedLinkReferences": {}
}