{
  "_format": "hh-sol-artifact-1",
  "contractName": "HalomStaking",
  "sourceName": "contracts/HalomStaking.sol",
  "abi": [
    {
      "inputs": [
        {
          "internalType": "address",
          "name": "_tokenAddress",
          "type": "address"
        },
        {
          "internalType": "address",
          "name": "_governance",
          "type": "address"
        }
      ],
      "stateMutability": "nonpayable",
      "type": "constructor"
    },
    {
      "anonymous": false,
      "inputs": [
        {
          "indexed": true,
          "internalType": "address",
          "name": "delegator",
          "type": "address"
        },
        {
          "indexed": true,
          "internalType": "address",
          "name": "validator",
          "type": "address"
        }
      ],
      "name": "Delegated",
      "type": "event"
    },
    {
      "anonymous": false,
      "inputs": [
        {
          "indexed": true,
          "internalType": "address",
          "name": "user",
          "type": "address"
        },
        {
          "indexed": false,
          "internalType": "uint256",
          "name": "amount",
          "type": "uint256"
        }
      ],
      "name": "RewardsClaimed",
      "type": "event"
    },
    {
      "anonymous": false,
      "inputs": [
        {
          "indexed": true,
          "internalType": "bytes32",
          "name": "role",
          "type": "bytes32"
        },
        {
          "indexed": true,
          "internalType": "bytes32",
          "name": "previousAdminRole",
          "type": "bytes32"
        },
        {
          "indexed": true,
          "internalType": "bytes32",
          "name": "newAdminRole",
          "type": "bytes32"
        }
      ],
      "name": "RoleAdminChanged",
      "type": "event"
    },
    {
      "anonymous": false,
      "inputs": [
        {
          "indexed": true,
          "internalType": "bytes32",
          "name": "role",
          "type": "bytes32"
        },
        {
          "indexed": true,
          "internalType": "address",
          "name": "account",
          "type": "address"
        },
        {
          "indexed": true,
          "internalType": "address",
          "name": "sender",
          "type": "address"
        }
      ],
      "name": "RoleGranted",
      "type": "event"
    },
    {
      "anonymous": false,
      "inputs": [
        {
          "indexed": true,
          "internalType": "bytes32",
          "name": "role",
          "type": "bytes32"
        },
        {
          "indexed": true,
          "internalType": "address",
          "name": "account",
          "type": "address"
        },
        {
          "indexed": true,
          "internalType": "address",
          "name": "sender",
          "type": "address"
        }
      ],
      "name": "RoleRevoked",
      "type": "event"
    },
    {
      "anonymous": false,
      "inputs": [
        {
          "indexed": true,
          "internalType": "address",
          "name": "validator",
          "type": "address"
        },
        {
          "indexed": false,
          "internalType": "uint256",
          "name": "amount",
          "type": "uint256"
        }
      ],
      "name": "Slashed",
      "type": "event"
    },
    {
      "anonymous": false,
      "inputs": [
        {
          "indexed": true,
          "internalType": "address",
          "name": "user",
          "type": "address"
        },
        {
          "indexed": false,
          "internalType": "uint256",
          "name": "amount",
          "type": "uint256"
        },
        {
          "indexed": false,
          "internalType": "uint256",
          "name": "lockUntil",
          "type": "uint256"
        },
        {
          "indexed": false,
          "internalType": "enum HalomStaking.LockPeriod",
          "name": "lockPeriod",
          "type": "uint8"
        }
      ],
      "name": "Staked",
      "type": "event"
    },
    {
      "anonymous": false,
      "inputs": [
        {
          "indexed": true,
          "internalType": "address",
          "name": "user",
          "type": "address"
        },
        {
          "indexed": false,
          "internalType": "uint256",
          "name": "amount",
          "type": "uint256"
        }
      ],
      "name": "Unstaked",
      "type": "event"
    },
    {
      "inputs": [],
      "name": "DEFAULT_ADMIN_ROLE",
      "outputs": [
        {
          "internalType": "bytes32",
          "name": "",
          "type": "bytes32"
        }
      ],
      "stateMutability": "view",
      "type": "function"
    },
    {
      "inputs": [],
      "name": "GOVERNOR_ROLE",
      "outputs": [
        {
          "internalType": "bytes32",
          "name": "",
          "type": "bytes32"
        }
      ],
      "stateMutability": "view",
      "type": "function"
    },
    {
      "inputs": [],
      "name": "MAX_COMMISSION",
      "outputs": [
        {
          "internalType": "uint256",
          "name": "",
          "type": "uint256"
        }
      ],
      "stateMutability": "view",
      "type": "function"
    },
    {
      "inputs": [
        {
          "internalType": "uint256",
          "name": "amount",
          "type": "uint256"
        }
      ],
      "name": "addRewards",
      "outputs": [],
      "stateMutability": "nonpayable",
      "type": "function"
    },
    {
      "inputs": [],
      "name": "claimRewards",
      "outputs": [],
      "stateMutability": "nonpayable",
      "type": "function"
    },
    {
      "inputs": [
        {
          "internalType": "address",
          "name": "",
          "type": "address"
        }
      ],
      "name": "delegators",
      "outputs": [
        {
          "internalType": "address",
          "name": "",
          "type": "address"
        }
      ],
      "stateMutability": "view",
      "type": "function"
    },
    {
      "inputs": [
        {
          "internalType": "address",
          "name": "user",
          "type": "address"
        }
      ],
      "name": "getEffectiveStake",
      "outputs": [
        {
          "internalType": "uint256",
          "name": "",
          "type": "uint256"
        }
      ],
      "stateMutability": "view",
      "type": "function"
    },
    {
      "inputs": [
        {
          "internalType": "enum HalomStaking.LockPeriod",
          "name": "lockPeriod",
          "type": "uint8"
        }
      ],
      "name": "getLockDuration",
      "outputs": [
        {
          "internalType": "uint256",
          "name": "",
          "type": "uint256"
        }
      ],
      "stateMutability": "pure",
      "type": "function"
    },
    {
      "inputs": [
        {
          "internalType": "bytes32",
          "name": "role",
          "type": "bytes32"
        }
      ],
      "name": "getRoleAdmin",
      "outputs": [
        {
          "internalType": "bytes32",
          "name": "",
          "type": "bytes32"
        }
      ],
      "stateMutability": "view",
      "type": "function"
    },
    {
      "inputs": [
        {
          "internalType": "bytes32",
          "name": "role",
          "type": "bytes32"
        },
        {
          "internalType": "address",
          "name": "account",
          "type": "address"
        }
      ],
      "name": "grantRole",
      "outputs": [],
      "stateMutability": "nonpayable",
      "type": "function"
    },
    {
      "inputs": [],
      "name": "halomToken",
      "outputs": [
        {
          "internalType": "contract IHalomToken",
          "name": "",
          "type": "address"
        }
      ],
      "stateMutability": "view",
      "type": "function"
    },
    {
      "inputs": [
        {
          "internalType": "bytes32",
          "name": "role",
          "type": "bytes32"
        },
        {
          "internalType": "address",
          "name": "account",
          "type": "address"
        }
      ],
      "name": "hasRole",
      "outputs": [
        {
          "internalType": "bool",
          "name": "",
          "type": "bool"
        }
      ],
      "stateMutability": "view",
      "type": "function"
    },
    {
      "inputs": [],
      "name": "lockBoostB0",
      "outputs": [
        {
          "internalType": "uint256",
          "name": "",
          "type": "uint256"
        }
      ],
      "stateMutability": "view",
      "type": "function"
    },
    {
      "inputs": [],
      "name": "lockBoostTMax",
      "outputs": [
        {
          "internalType": "uint256",
          "name": "",
          "type": "uint256"
        }
      ],
      "stateMutability": "view",
      "type": "function"
    },
    {
      "inputs": [
        {
          "internalType": "address",
          "name": "user",
          "type": "address"
        }
      ],
      "name": "pendingRewards",
      "outputs": [
        {
          "internalType": "uint256",
          "name": "",
          "type": "uint256"
        }
      ],
      "stateMutability": "view",
      "type": "function"
    },
    {
      "inputs": [
        {
          "internalType": "bytes32",
          "name": "role",
          "type": "bytes32"
        },
        {
          "internalType": "address",
          "name": "account",
          "type": "address"
        }
      ],
      "name": "renounceRole",
      "outputs": [],
      "stateMutability": "nonpayable",
      "type": "function"
    },
    {
      "inputs": [
        {
          "internalType": "bytes32",
          "name": "role",
          "type": "bytes32"
        },
        {
          "internalType": "address",
          "name": "account",
          "type": "address"
        }
      ],
      "name": "revokeRole",
      "outputs": [],
      "stateMutability": "nonpayable",
      "type": "function"
    },
    {
      "inputs": [],
      "name": "rewardsPerShare",
      "outputs": [
        {
          "internalType": "uint256",
          "name": "",
          "type": "uint256"
        }
      ],
      "stateMutability": "view",
      "type": "function"
    },
    {
      "inputs": [
        {
          "internalType": "uint256",
          "name": "_newRate",
          "type": "uint256"
        }
      ],
      "name": "setCommissionRate",
      "outputs": [],
      "stateMutability": "nonpayable",
      "type": "function"
    },
    {
      "inputs": [
        {
          "internalType": "uint256",
          "name": "_newB0",
          "type": "uint256"
        },
        {
          "internalType": "uint256",
          "name": "_newTMax",
          "type": "uint256"
        }
      ],
      "name": "setLockBoostParams",
      "outputs": [],
      "stateMutability": "nonpayable",
      "type": "function"
    },
    {
      "inputs": [
        {
          "internalType": "address",
          "name": "validator",
          "type": "address"
        },
        {
          "internalType": "uint256",
          "name": "amountToSlash",
          "type": "uint256"
        }
      ],
      "name": "slash",
      "outputs": [],
      "stateMutability": "nonpayable",
      "type": "function"
    },
    {
      "inputs": [
        {
          "internalType": "uint256",
          "name": "amount",
          "type": "uint256"
        },
        {
          "internalType": "uint256",
          "name": "lockDuration",
          "type": "uint256"
        }
      ],
      "name": "stake",
      "outputs": [],
      "stateMutability": "nonpayable",
      "type": "function"
    },
    {
      "inputs": [
        {
          "internalType": "uint256",
          "name": "amount",
          "type": "uint256"
        },
        {
          "internalType": "enum HalomStaking.LockPeriod",
          "name": "lockPeriod",
          "type": "uint8"
        }
      ],
      "name": "stakeWithLockPeriod",
      "outputs": [],
      "stateMutability": "nonpayable",
      "type": "function"
    },
    {
      "inputs": [
        {
          "internalType": "address",
          "name": "",
          "type": "address"
        }
      ],
      "name": "stakes",
      "outputs": [
        {
          "internalType": "uint256",
          "name": "amount",
          "type": "uint256"
        },
        {
          "internalType": "uint256",
          "name": "rewardDebt",
          "type": "uint256"
        },
        {
          "internalType": "uint256",
          "name": "lockUntil",
          "type": "uint256"
        },
        {
          "internalType": "enum HalomStaking.LockPeriod",
          "name": "lockPeriod",
          "type": "uint8"
        }
      ],
      "stateMutability": "view",
      "type": "function"
    },
    {
      "inputs": [
        {
          "internalType": "bytes4",
          "name": "interfaceId",
          "type": "bytes4"
        }
      ],
      "name": "supportsInterface",
      "outputs": [
        {
          "internalType": "bool",
          "name": "",
          "type": "bool"
        }
      ],
      "stateMutability": "view",
      "type": "function"
    },
    {
      "inputs": [],
      "name": "totalStaked",
      "outputs": [
        {
          "internalType": "uint256",
          "name": "",
          "type": "uint256"
        }
      ],
      "stateMutability": "view",
      "type": "function"
    },
    {
      "inputs": [
        {
          "internalType": "uint256",
          "name": "amount",
          "type": "uint256"
        }
      ],
      "name": "unstake",
      "outputs": [],
      "stateMutability": "nonpayable",
      "type": "function"
    },
    {
      "inputs": [
        {
          "internalType": "address",
          "name": "",
          "type": "address"
        }
      ],
      "name": "validatorCommission",
      "outputs": [
        {
          "internalType": "uint256",
          "name": "",
          "type": "uint256"
        }
      ],
      "stateMutability": "view",
      "type": "function"
    }
  ],
  "bytecode": "0x60a06040523480156200001157600080fd5b50604051620031a4380380620031a48339818101604052810190620000379190620002a2565b600180819055508173ffffffffffffffffffffffffffffffffffffffff1660808173ffffffffffffffffffffffffffffffffffffffff1681525050620000876000801b82620000d560201b60201c565b620000b97f7935bd0ae54bc31f548c14dba4d37c5c64b3f8ca900cb468fb8abd54d5894f5582620000d560201b60201c565b6107d06007819055506301e133806008819055505050620002e9565b620000e78282620001c660201b60201c565b620001c257600160008084815260200190815260200160002060000160008373ffffffffffffffffffffffffffffffffffffffff1673ffffffffffffffffffffffffffffffffffffffff16815260200190815260200160002060006101000a81548160ff021916908315150217905550620001676200023060201b60201c565b73ffffffffffffffffffffffffffffffffffffffff168173ffffffffffffffffffffffffffffffffffffffff16837f2f8788117e7eff1d82e926ec794901d17c78024a50270940304540a733656f0d60405160405180910390a45b5050565b600080600084815260200190815260200160002060000160008373ffffffffffffffffffffffffffffffffffffffff1673ffffffffffffffffffffffffffffffffffffffff16815260200190815260200160002060009054906101000a900460ff16905092915050565b600033905090565b600080fd5b600073ffffffffffffffffffffffffffffffffffffffff82169050919050565b60006200026a826200023d565b9050919050565b6200027c816200025d565b81146200028857600080fd5b50565b6000815190506200029c8162000271565b92915050565b60008060408385031215620002bc57620002bb62000238565b5b6000620002cc858286016200028b565b9250506020620002df858286016200028b565b9150509250929050565b608051612e756200032f6000396000818161097201528181610cef01528181610f9501528181611055015281816113af015281816115a501526118740152612e756000f3fe608060405234801561001057600080fd5b50600436106101c45760003560e01c8063817b1cd2116100f9578063beceed3911610097578063d547741f11610071578063d547741f1461051c578063e51a87a314610538578063f13e9f9414610554578063f38f974514610572576101c4565b8063beceed39146104c4578063c7e1d0b1146104e0578063ccc57490146104fe576101c4565b80638d23fc61116100d35780638d23fc611461042857806391d1485414610458578063a217fddf14610488578063ae97dde8146104a6576101c4565b8063817b1cd2146103aa578063833f378a146103c857806383a25078146103f8576101c4565b80632e17de781161016657806336568abe1161014057806336568abe1461034a578063372500ab146103665780635e079d67146103705780637b0472f01461038e576101c4565b80632e17de78146102e25780632f2ff15d146102fe57806331d7a2621461031a576101c4565b806316934fc4116101a257806316934fc41461024557806319fac8fd146102785780631f5142bd14610294578063248a9ca3146102b2576101c4565b806301ffc9a7146101c957806302211f5e146101f957806302fb4d8514610229575b600080fd5b6101e360048036038101906101de9190611f21565b61058e565b6040516101f09190611f69565b60405180910390f35b610213600480360381019061020e9190611fe2565b610608565b6040516102209190612028565b60405180910390f35b610243600480360381019061023e919061206f565b61085f565b005b61025f600480360381019061025a9190611fe2565b610a64565b60405161026f9493929190612126565b60405180910390f35b610292600480360381019061028d919061216b565b610aa1565b005b61029c610bb2565b6040516102a99190612028565b60405180910390f35b6102cc60048036038101906102c791906121ce565b610bb8565b6040516102d9919061220a565b60405180910390f35b6102fc60048036038101906102f7919061216b565b610bd7565b005b61031860048036038101906103139190612225565b610de6565b005b610334600480360381019061032f9190611fe2565b610e07565b6040516103419190612028565b60405180910390f35b610364600480360381019061035f9190612225565b610ef5565b005b61036e610f78565b005b610378610f93565b60405161038591906122c4565b60405180910390f35b6103a860048036038101906103a391906122df565b610fb7565b005b6103b2611158565b6040516103bf9190612028565b60405180910390f35b6103e260048036038101906103dd9190612344565b61115e565b6040516103ef9190612028565b60405180910390f35b610412600480360381019061040d9190611fe2565b6112eb565b60405161041f9190612028565b60405180910390f35b610442600480360381019061043d9190611fe2565b611303565b60405161044f9190612380565b60405180910390f35b610472600480360381019061046d9190612225565b611336565b60405161047f9190611f69565b60405180910390f35b6104906113a0565b60405161049d919061220a565b60405180910390f35b6104ae6113a7565b6040516104bb9190612028565b60405180910390f35b6104de60048036038101906104d9919061216b565b6113ad565b005b6104e8611483565b6040516104f59190612028565b60405180910390f35b610506611489565b604051610513919061220a565b60405180910390f35b61053660048036038101906105319190612225565b6114ad565b005b610552600480360381019061054d919061239b565b6114ce565b005b61055c6116a8565b6040516105699190612028565b60405180910390f35b61058c600480360381019061058791906122df565b6116ae565b005b60007f7965db0b000000000000000000000000000000000000000000000000000000007bffffffffffffffffffffffffffffffffffffffffffffffffffffffff1916827bffffffffffffffffffffffffffffffffffffffffffffffffffffffff19161480610601575061060082611786565b5b9050919050565b600080600460008473ffffffffffffffffffffffffffffffffffffffff1673ffffffffffffffffffffffffffffffffffffffff1681526020019081526020016000206040518060800160405290816000820154815260200160018201548152602001600282015481526020016003820160009054906101000a900460ff166005811115610698576106976120af565b5b60058111156106aa576106a96120af565b5b81525050905060008160000151036106c657600091505061085a565b60008060058111156106db576106da6120af565b5b826060015160058111156106f2576106f16120af565b5b0361070057600b9050610829565b60016005811115610714576107136120af565b5b8260600151600581111561072b5761072a6120af565b5b036107395760389050610828565b6002600581111561074d5761074c6120af565b5b82606001516005811115610764576107636120af565b5b0361077257609e9050610827565b60036005811115610786576107856120af565b5b8260600151600581111561079d5761079c6120af565b5b036107ac576101bf9050610826565b600460058111156107c0576107bf6120af565b5b826060015160058111156107d7576107d66120af565b5b036107e6576104f19050610825565b6005808111156107f9576107f86120af565b5b826060015160058111156108105761080f6120af565b5b0361081f576113889050610824565b600090505b5b5b5b5b5b61271081836000015161083c919061240a565b610846919061247b565b826000015161085591906124ac565b925050505b919050565b7f7935bd0ae54bc31f548c14dba4d37c5c64b3f8ca900cb468fb8abd54d5894f55610889816117f0565b610891611804565b6000600460008573ffffffffffffffffffffffffffffffffffffffff1673ffffffffffffffffffffffffffffffffffffffff1681526020019081526020016000209050828160000154101561091b576040517f08c379a000000000000000000000000000000000000000000000000000000000815260040161091290612563565b60405180910390fd5b8281600001600082825461092f9190612583565b9250508190555082600260008282546109489190612583565b92505081905550600060028461095e919061247b565b90506000818561096e9190612583565b90507f000000000000000000000000000000000000000000000000000000000000000073ffffffffffffffffffffffffffffffffffffffff166379cc679030846040518363ffffffff1660e01b81526004016109cb9291906125b7565b600060405180830381600087803b1580156109e557600080fd5b505af11580156109f9573d6000803e3d6000fd5b50505050610a06816113ad565b8573ffffffffffffffffffffffffffffffffffffffff167f4ed05e9673c26d2ed44f7ef6a7f2942df0ee3b5e1e17db4b99f9dcd261a339cd86604051610a4c9190612028565b60405180910390a2505050610a5f611853565b505050565b60046020528060005260406000206000915090508060000154908060010154908060020154908060030160009054906101000a900460ff16905084565b6000600460003373ffffffffffffffffffffffffffffffffffffffff1673ffffffffffffffffffffffffffffffffffffffff1681526020019081526020016000206000015411610b26576040517f08c379a0000000000000000000000000000000000000000000000000000000008152600401610b1d90612652565b60405180910390fd5b6107d0811115610b6b576040517f08c379a0000000000000000000000000000000000000000000000000000000008152600401610b62906126e4565b60405180910390fd5b80600660003373ffffffffffffffffffffffffffffffffffffffff1673ffffffffffffffffffffffffffffffffffffffff1681526020019081526020016000208190555050565b60085481565b6000806000838152602001908152602001600020600101549050919050565b610bdf611804565b6000600460003373ffffffffffffffffffffffffffffffffffffffff1673ffffffffffffffffffffffffffffffffffffffff16815260200190815260200160002090508060020154421015610c69576040517f08c379a0000000000000000000000000000000000000000000000000000000008152600401610c6090612750565b60405180910390fd5b8181600001541015610cb0576040517f08c379a0000000000000000000000000000000000000000000000000000000008152600401610ca7906127bc565b60405180910390fd5b610cb93361185c565b81816000016000828254610ccd9190612583565b925050819055508160026000828254610ce69190612583565b925050819055507f000000000000000000000000000000000000000000000000000000000000000073ffffffffffffffffffffffffffffffffffffffff1663a9059cbb33846040518363ffffffff1660e01b8152600401610d489291906125b7565b6020604051808303816000875af1158015610d67573d6000803e3d6000fd5b505050506040513d601f19601f82011682018060405250810190610d8b9190612808565b503373ffffffffffffffffffffffffffffffffffffffff167f0f5bb82176feb1b5e747e28471aa92156a04d9f3ab9f45f28e2d704232b93f7583604051610dd29190612028565b60405180910390a250610de3611853565b50565b610def82610bb8565b610df8816117f0565b610e028383611a0d565b505050565b600080600460008473ffffffffffffffffffffffffffffffffffffffff1673ffffffffffffffffffffffffffffffffffffffff1681526020019081526020016000206040518060800160405290816000820154815260200160018201548152602001600282015481526020016003820160009054906101000a900460ff166005811115610e9757610e966120af565b5b6005811115610ea957610ea86120af565b5b8152505090506000610eba84610608565b90508160200151670de0b6b3a764000060035483610ed8919061240a565b610ee2919061247b565b610eec9190612583565b92505050919050565b610efd611aed565b73ffffffffffffffffffffffffffffffffffffffff168173ffffffffffffffffffffffffffffffffffffffff1614610f6a576040517f08c379a0000000000000000000000000000000000000000000000000000000008152600401610f61906128a7565b60405180910390fd5b610f748282611af5565b5050565b610f80611804565b610f893361185c565b610f91611853565b565b7f000000000000000000000000000000000000000000000000000000000000000081565b610fbf611804565b610fc83361185c565b6000600460003373ffffffffffffffffffffffffffffffffffffffff1673ffffffffffffffffffffffffffffffffffffffff16815260200190815260200160002090508281600001600082825461101f91906124ac565b92505081905550814261103291906124ac565b8160020181905550826002600082825461104c91906124ac565b925050819055507f000000000000000000000000000000000000000000000000000000000000000073ffffffffffffffffffffffffffffffffffffffff166323b872dd3330866040518463ffffffff1660e01b81526004016110b0939291906128c7565b6020604051808303816000875af11580156110cf573d6000803e3d6000fd5b505050506040513d601f19601f820116820180604052508101906110f39190612808565b503373ffffffffffffffffffffffffffffffffffffffff167f11046f741396910185536955c79ec22a76d04229d188bc13962f8331b81008a98483600201546001604051611143939291906128fe565b60405180910390a250611154611853565b5050565b60025481565b6000806005811115611173576111726120af565b5b826005811115611186576111856120af565b5b036111965762278d0090506112e6565b600160058111156111aa576111a96120af565b5b8260058111156111bd576111bc6120af565b5b036111cd576276a70090506112e6565b600260058111156111e1576111e06120af565b5b8260058111156111f4576111f36120af565b5b036112045762ed4e0090506112e6565b60036005811115611218576112176120af565b5b82600581111561122b5761122a6120af565b5b0361123c576301e1338090506112e6565b600460058111156112505761124f6120af565b5b826005811115611263576112626120af565b5b03611274576303c2670090506112e6565b600580811115611287576112866120af565b5b82600581111561129a576112996120af565b5b036112ab57630966018090506112e6565b6040517f08c379a00000000000000000000000000000000000000000000000000000000081526004016112dd90612981565b60405180910390fd5b919050565b60066020528060005260406000206000915090505481565b60056020528060005260406000206000915054906101000a900473ffffffffffffffffffffffffffffffffffffffff1681565b600080600084815260200190815260200160002060000160008373ffffffffffffffffffffffffffffffffffffffff1673ffffffffffffffffffffffffffffffffffffffff16815260200190815260200160002060009054906101000a900460ff16905092915050565b6000801b81565b6107d081565b7f000000000000000000000000000000000000000000000000000000000000000073ffffffffffffffffffffffffffffffffffffffff163373ffffffffffffffffffffffffffffffffffffffff161461143b576040517f08c379a000000000000000000000000000000000000000000000000000000000815260040161143290612a13565b60405180910390fd5b6000600254111561148057600254670de0b6b3a76400008261145d919061240a565b611467919061247b565b6003600082825461147891906124ac565b925050819055505b50565b60035481565b7f7935bd0ae54bc31f548c14dba4d37c5c64b3f8ca900cb468fb8abd54d5894f5581565b6114b682610bb8565b6114bf816117f0565b6114c98383611af5565b505050565b6114d6611804565b60006114e18261115e565b90506114ec3361185c565b6000600460003373ffffffffffffffffffffffffffffffffffffffff1673ffffffffffffffffffffffffffffffffffffffff16815260200190815260200160002090508381600001600082825461154391906124ac565b92505081905550814261155691906124ac565b8160020181905550828160030160006101000a81548160ff02191690836005811115611585576115846120af565b5b0217905550836002600082825461159c91906124ac565b925050819055507f000000000000000000000000000000000000000000000000000000000000000073ffffffffffffffffffffffffffffffffffffffff166323b872dd3330876040518463ffffffff1660e01b8152600401611600939291906128c7565b6020604051808303816000875af115801561161f573d6000803e3d6000fd5b505050506040513d601f19601f820116820180604052508101906116439190612808565b503373ffffffffffffffffffffffffffffffffffffffff167f11046f741396910185536955c79ec22a76d04229d188bc13962f8331b81008a985836002015486604051611692939291906128fe565b60405180910390a250506116a4611853565b5050565b60075481565b7f7935bd0ae54bc31f548c14dba4d37c5c64b3f8ca900cb468fb8abd54d5894f556116d8816117f0565b61138883111561171d576040517f08c379a000000000000000000000000000000000000000000000000000000000815260040161171490612a7f565b60405180910390fd5b62278d00821015801561173457506303c267008211155b611773576040517f08c379a000000000000000000000000000000000000000000000000000000000815260040161176a90612b11565b60405180910390fd5b8260078190555081600881905550505050565b60007f01ffc9a7000000000000000000000000000000000000000000000000000000007bffffffffffffffffffffffffffffffffffffffffffffffffffffffff1916827bffffffffffffffffffffffffffffffffffffffffffffffffffffffff1916149050919050565b611801816117fc611aed565b611bd6565b50565b600260015403611849576040517f08c379a000000000000000000000000000000000000000000000000000000000815260040161184090612b7d565b60405180910390fd5b6002600181905550565b60018081905550565b600061186782610e07565b90506000811115611960577f000000000000000000000000000000000000000000000000000000000000000073ffffffffffffffffffffffffffffffffffffffff1663a9059cbb83836040518363ffffffff1660e01b81526004016118cd9291906125b7565b6020604051808303816000875af11580156118ec573d6000803e3d6000fd5b505050506040513d601f19601f820116820180604052508101906119109190612808565b508173ffffffffffffffffffffffffffffffffffffffff167ffc30cddea38e2bf4d6ea7d3f9ed3b6ad7f176419f4963bd81318067a4aee73fe826040516119579190612028565b60405180910390a25b670de0b6b3a7640000600354600460008573ffffffffffffffffffffffffffffffffffffffff1673ffffffffffffffffffffffffffffffffffffffff168152602001908152602001600020600001546119b9919061240a565b6119c3919061247b565b600460008473ffffffffffffffffffffffffffffffffffffffff1673ffffffffffffffffffffffffffffffffffffffff168152602001908152602001600020600101819055505050565b611a178282611336565b611ae957600160008084815260200190815260200160002060000160008373ffffffffffffffffffffffffffffffffffffffff1673ffffffffffffffffffffffffffffffffffffffff16815260200190815260200160002060006101000a81548160ff021916908315150217905550611a8e611aed565b73ffffffffffffffffffffffffffffffffffffffff168173ffffffffffffffffffffffffffffffffffffffff16837f2f8788117e7eff1d82e926ec794901d17c78024a50270940304540a733656f0d60405160405180910390a45b5050565b600033905090565b611aff8282611336565b15611bd257600080600084815260200190815260200160002060000160008373ffffffffffffffffffffffffffffffffffffffff1673ffffffffffffffffffffffffffffffffffffffff16815260200190815260200160002060006101000a81548160ff021916908315150217905550611b77611aed565b73ffffffffffffffffffffffffffffffffffffffff168173ffffffffffffffffffffffffffffffffffffffff16837ff6391f5c32d9c69d2a47ea670b442974b53935d1edc7fd64eb21e047a839171b60405160405180910390a45b5050565b611be08282611336565b611c5757611bed81611c5b565b611bfb8360001c6020611c88565b604051602001611c0c929190612ca6565b6040516020818303038152906040526040517f08c379a0000000000000000000000000000000000000000000000000000000008152600401611c4e9190612d2a565b60405180910390fd5b5050565b6060611c818273ffffffffffffffffffffffffffffffffffffffff16601460ff16611c88565b9050919050565b606060006002836002611c9b919061240a565b611ca591906124ac565b67ffffffffffffffff811115611cbe57611cbd612d4c565b5b6040519080825280601f01601f191660200182016040528015611cf05781602001600182028036833780820191505090505b5090507f300000000000000000000000000000000000000000000000000000000000000081600081518110611d2857611d27612d7b565b5b60200101907effffffffffffffffffffffffffffffffffffffffffffffffffffffffffffff1916908160001a9053507f780000000000000000000000000000000000000000000000000000000000000081600181518110611d8c57611d8b612d7b565b5b60200101907effffffffffffffffffffffffffffffffffffffffffffffffffffffffffffff1916908160001a90535060006001846002611dcc919061240a565b611dd691906124ac565b90505b6001811115611e76577f3031323334353637383961626364656600000000000000000000000000000000600f861660108110611e1857611e17612d7b565b5b1a60f81b828281518110611e2f57611e2e612d7b565b5b60200101907effffffffffffffffffffffffffffffffffffffffffffffffffffffffffffff1916908160001a905350600485901c945080611e6f90612daa565b9050611dd9565b5060008414611eba576040517f08c379a0000000000000000000000000000000000000000000000000000000008152600401611eb190612e1f565b60405180910390fd5b8091505092915050565b600080fd5b60007fffffffff0000000000000000000000000000000000000000000000000000000082169050919050565b611efe81611ec9565b8114611f0957600080fd5b50565b600081359050611f1b81611ef5565b92915050565b600060208284031215611f3757611f36611ec4565b5b6000611f4584828501611f0c565b91505092915050565b60008115159050919050565b611f6381611f4e565b82525050565b6000602082019050611f7e6000830184611f5a565b92915050565b600073ffffffffffffffffffffffffffffffffffffffff82169050919050565b6000611faf82611f84565b9050919050565b611fbf81611fa4565b8114611fca57600080fd5b50565b600081359050611fdc81611fb6565b92915050565b600060208284031215611ff857611ff7611ec4565b5b600061200684828501611fcd565b91505092915050565b6000819050919050565b6120228161200f565b82525050565b600060208201905061203d6000830184612019565b92915050565b61204c8161200f565b811461205757600080fd5b50565b60008135905061206981612043565b92915050565b6000806040838503121561208657612085611ec4565b5b600061209485828601611fcd565b92505060206120a58582860161205a565b9150509250929050565b7f4e487b7100000000000000000000000000000000000000000000000000000000600052602160045260246000fd5b600681106120ef576120ee6120af565b5b50565b6000819050612100826120de565b919050565b6000612110826120f2565b9050919050565b61212081612105565b82525050565b600060808201905061213b6000830187612019565b6121486020830186612019565b6121556040830185612019565b6121626060830184612117565b95945050505050565b60006020828403121561218157612180611ec4565b5b600061218f8482850161205a565b91505092915050565b6000819050919050565b6121ab81612198565b81146121b657600080fd5b50565b6000813590506121c8816121a2565b92915050565b6000602082840312156121e4576121e3611ec4565b5b60006121f2848285016121b9565b91505092915050565b61220481612198565b82525050565b600060208201905061221f60008301846121fb565b92915050565b6000806040838503121561223c5761223b611ec4565b5b600061224a858286016121b9565b925050602061225b85828601611fcd565b9150509250929050565b6000819050919050565b600061228a61228561228084611f84565b612265565b611f84565b9050919050565b600061229c8261226f565b9050919050565b60006122ae82612291565b9050919050565b6122be816122a3565b82525050565b60006020820190506122d960008301846122b5565b92915050565b600080604083850312156122f6576122f5611ec4565b5b60006123048582860161205a565b92505060206123158582860161205a565b9150509250929050565b6006811061232c57600080fd5b50565b60008135905061233e8161231f565b92915050565b60006020828403121561235a57612359611ec4565b5b60006123688482850161232f565b91505092915050565b61237a81611fa4565b82525050565b60006020820190506123956000830184612371565b92915050565b600080604083850312156123b2576123b1611ec4565b5b60006123c08582860161205a565b92505060206123d18582860161232f565b9150509250929050565b7f4e487b7100000000000000000000000000000000000000000000000000000000600052601160045260246000fd5b60006124158261200f565b91506124208361200f565b925082820261242e8161200f565b91508282048414831517612445576124446123db565b5b5092915050565b7f4e487b7100000000000000000000000000000000000000000000000000000000600052601260045260246000fd5b60006124868261200f565b91506124918361200f565b9250826124a1576124a061244c565b5b828204905092915050565b60006124b78261200f565b91506124c28361200f565b92508282019050808211156124da576124d96123db565b5b92915050565b600082825260208201905092915050565b7f48616c6f6d5374616b696e673a20536c61736820616d6f756e7420657863656560008201527f6473207374616b65000000000000000000000000000000000000000000000000602082015250565b600061254d6028836124e0565b9150612558826124f1565b604082019050919050565b6000602082019050818103600083015261257c81612540565b9050919050565b600061258e8261200f565b91506125998361200f565b92508282039050818111156125b1576125b06123db565b5b92915050565b60006040820190506125cc6000830185612371565b6125d96020830184612019565b9392505050565b7f48616c6f6d5374616b696e673a204e6f742061207374616b65722c2063616e6e60008201527f6f7420626520612076616c696461746f72000000000000000000000000000000602082015250565b600061263c6031836124e0565b9150612647826125e0565b604082019050919050565b6000602082019050818103600083015261266b8161262f565b9050919050565b7f48616c6f6d5374616b696e673a20436f6d6d697373696f6e206578636565647360008201527f206d6178696d756d000000000000000000000000000000000000000000000000602082015250565b60006126ce6028836124e0565b91506126d982612672565b604082019050919050565b600060208201905081810360008301526126fd816126c1565b9050919050565b7f48616c6f6d5374616b696e673a20546f6b656e7320617265206c6f636b656400600082015250565b600061273a601f836124e0565b915061274582612704565b602082019050919050565b600060208201905081810360008301526127698161272d565b9050919050565b7f48616c6f6d5374616b696e673a20496e73756666696369656e74207374616b65600082015250565b60006127a66020836124e0565b91506127b182612770565b602082019050919050565b600060208201905081810360008301526127d581612799565b9050919050565b6127e581611f4e565b81146127f057600080fd5b50565b600081519050612802816127dc565b92915050565b60006020828403121561281e5761281d611ec4565b5b600061282c848285016127f3565b91505092915050565b7f416363657373436f6e74726f6c3a2063616e206f6e6c792072656e6f756e636560008201527f20726f6c657320666f722073656c660000000000000000000000000000000000602082015250565b6000612891602f836124e0565b915061289c82612835565b604082019050919050565b600060208201905081810360008301526128c081612884565b9050919050565b60006060820190506128dc6000830186612371565b6128e96020830185612371565b6128f66040830184612019565b949350505050565b60006060820190506129136000830186612019565b6129206020830185612019565b61292d6040830184612117565b949350505050565b7f496e76616c6964206c6f636b20706572696f6400000000000000000000000000600082015250565b600061296b6013836124e0565b915061297682612935565b602082019050919050565b6000602082019050818103600083015261299a8161295e565b9050919050565b7f48616c6f6d5374616b696e673a204e6f742074686520746f6b656e20636f6e7460008201527f7261637400000000000000000000000000000000000000000000000000000000602082015250565b60006129fd6024836124e0565b9150612a08826129a1565b604082019050919050565b60006020820190508181036000830152612a2c816129f0565b9050919050565b7f42302063616e6e6f742065786365656420353025000000000000000000000000600082015250565b6000612a696014836124e0565b9150612a7482612a33565b602082019050919050565b60006020820190508181036000830152612a9881612a5c565b9050919050565b7f544d6178206d757374206265206265747765656e20333020616e64203733302060008201527f6461797300000000000000000000000000000000000000000000000000000000602082015250565b6000612afb6024836124e0565b9150612b0682612a9f565b604082019050919050565b60006020820190508181036000830152612b2a81612aee565b9050919050565b7f5265656e7472616e637947756172643a207265656e7472616e742063616c6c00600082015250565b6000612b67601f836124e0565b9150612b7282612b31565b602082019050919050565b60006020820190508181036000830152612b9681612b5a565b9050919050565b600081905092915050565b7f416363657373436f6e74726f6c3a206163636f756e7420000000000000000000600082015250565b6000612bde601783612b9d565b9150612be982612ba8565b601782019050919050565b600081519050919050565b60005b83811015612c1d578082015181840152602081019050612c02565b60008484015250505050565b6000612c3482612bf4565b612c3e8185612b9d565b9350612c4e818560208601612bff565b80840191505092915050565b7f206973206d697373696e6720726f6c6520000000000000000000000000000000600082015250565b6000612c90601183612b9d565b9150612c9b82612c5a565b601182019050919050565b6000612cb182612bd1565b9150612cbd8285612c29565b9150612cc882612c83565b9150612cd48284612c29565b91508190509392505050565b6000601f19601f8301169050919050565b6000612cfc82612bf4565b612d0681856124e0565b9350612d16818560208601612bff565b612d1f81612ce0565b840191505092915050565b60006020820190508181036000830152612d448184612cf1565b905092915050565b7f4e487b7100000000000000000000000000000000000000000000000000000000600052604160045260246000fd5b7f4e487b7100000000000000000000000000000000000000000000000000000000600052603260045260246000fd5b6000612db58261200f565b915060008203612dc857612dc76123db565b5b600182039050919050565b7f537472696e67733a20686578206c656e67746820696e73756666696369656e74600082015250565b6000612e096020836124e0565b9150612e1482612dd3565b602082019050919050565b60006020820190508181036000830152612e3881612dfc565b905091905056fea264697066735822122041d33a065082c7ab710f40ec68fc43dc2975c7db277c4174b0eeac91258203d364736f6c63430008140033",
  "linkReferences": {},
  "deployedLinkReferences": {}
}