{
  "_format": "hh-sol-artifact-1",
  "contractName": "HalomStaking",
  "sourceName": "contracts/HalomStaking.sol",
  "abi": [
    {
      "inputs": [
        {
          "internalType": "address",
          "name": "_tokenAddress",
          "type": "address"
        },
        {
          "internalType": "address",
          "name": "_governance",
          "type": "address"
        }
      ],
      "stateMutability": "nonpayable",
      "type": "constructor"
    },
    {
      "anonymous": false,
      "inputs": [
        {
          "indexed": true,
          "internalType": "address",
          "name": "delegator",
          "type": "address"
        },
        {
          "indexed": true,
          "internalType": "address",
          "name": "validator",
          "type": "address"
        }
      ],
      "name": "Delegated",
      "type": "event"
    },
    {
      "anonymous": false,
      "inputs": [
        {
          "indexed": true,
          "internalType": "address",
          "name": "user",
          "type": "address"
        },
        {
          "indexed": false,
          "internalType": "uint256",
          "name": "amount",
          "type": "uint256"
        }
      ],
      "name": "RewardsClaimed",
      "type": "event"
    },
    {
      "anonymous": false,
      "inputs": [
        {
          "indexed": true,
          "internalType": "bytes32",
          "name": "role",
          "type": "bytes32"
        },
        {
          "indexed": true,
          "internalType": "bytes32",
          "name": "previousAdminRole",
          "type": "bytes32"
        },
        {
          "indexed": true,
          "internalType": "bytes32",
          "name": "newAdminRole",
          "type": "bytes32"
        }
      ],
      "name": "RoleAdminChanged",
      "type": "event"
    },
    {
      "anonymous": false,
      "inputs": [
        {
          "indexed": true,
          "internalType": "bytes32",
          "name": "role",
          "type": "bytes32"
        },
        {
          "indexed": true,
          "internalType": "address",
          "name": "account",
          "type": "address"
        },
        {
          "indexed": true,
          "internalType": "address",
          "name": "sender",
          "type": "address"
        }
      ],
      "name": "RoleGranted",
      "type": "event"
    },
    {
      "anonymous": false,
      "inputs": [
        {
          "indexed": true,
          "internalType": "bytes32",
          "name": "role",
          "type": "bytes32"
        },
        {
          "indexed": true,
          "internalType": "address",
          "name": "account",
          "type": "address"
        },
        {
          "indexed": true,
          "internalType": "address",
          "name": "sender",
          "type": "address"
        }
      ],
      "name": "RoleRevoked",
      "type": "event"
    },
    {
      "anonymous": false,
      "inputs": [
        {
          "indexed": true,
          "internalType": "address",
          "name": "validator",
          "type": "address"
        },
        {
          "indexed": false,
          "internalType": "uint256",
          "name": "amount",
          "type": "uint256"
        }
      ],
      "name": "Slashed",
      "type": "event"
    },
    {
      "anonymous": false,
      "inputs": [
        {
          "indexed": true,
          "internalType": "address",
          "name": "user",
          "type": "address"
        },
        {
          "indexed": false,
          "internalType": "uint256",
          "name": "amount",
          "type": "uint256"
        },
        {
          "indexed": false,
          "internalType": "uint256",
          "name": "lockUntil",
          "type": "uint256"
        },
        {
          "indexed": false,
          "internalType": "enum HalomStaking.LockPeriod",
          "name": "lockPeriod",
          "type": "uint8"
        }
      ],
      "name": "Staked",
      "type": "event"
    },
    {
      "anonymous": false,
      "inputs": [
        {
          "indexed": true,
          "internalType": "address",
          "name": "user",
          "type": "address"
        },
        {
          "indexed": false,
          "internalType": "uint256",
          "name": "amount",
          "type": "uint256"
        }
      ],
      "name": "Unstaked",
      "type": "event"
    },
    {
      "inputs": [],
      "name": "DEFAULT_ADMIN_ROLE",
      "outputs": [
        {
          "internalType": "bytes32",
          "name": "",
          "type": "bytes32"
        }
      ],
      "stateMutability": "view",
      "type": "function"
    },
    {
      "inputs": [],
      "name": "GOVERNOR_ROLE",
      "outputs": [
        {
          "internalType": "bytes32",
          "name": "",
          "type": "bytes32"
        }
      ],
      "stateMutability": "view",
      "type": "function"
    },
    {
      "inputs": [],
      "name": "MAX_COMMISSION",
      "outputs": [
        {
          "internalType": "uint256",
          "name": "",
          "type": "uint256"
        }
      ],
      "stateMutability": "view",
      "type": "function"
    },
    {
      "inputs": [
        {
          "internalType": "uint256",
          "name": "amount",
          "type": "uint256"
        }
      ],
      "name": "addRewards",
      "outputs": [],
      "stateMutability": "nonpayable",
      "type": "function"
    },
    {
      "inputs": [],
      "name": "claimRewards",
      "outputs": [],
      "stateMutability": "nonpayable",
      "type": "function"
    },
    {
      "inputs": [
        {
          "internalType": "address",
          "name": "",
          "type": "address"
        }
      ],
      "name": "delegators",
      "outputs": [
        {
          "internalType": "address",
          "name": "",
          "type": "address"
        }
      ],
      "stateMutability": "view",
      "type": "function"
    },
    {
      "inputs": [
        {
          "internalType": "address",
          "name": "user",
          "type": "address"
        }
      ],
      "name": "getEffectiveStake",
      "outputs": [
        {
          "internalType": "uint256",
          "name": "",
          "type": "uint256"
        }
      ],
      "stateMutability": "view",
      "type": "function"
    },
    {
      "inputs": [
        {
          "internalType": "enum HalomStaking.LockPeriod",
          "name": "lockPeriod",
          "type": "uint8"
        }
      ],
      "name": "getLockDuration",
      "outputs": [
        {
          "internalType": "uint256",
          "name": "",
          "type": "uint256"
        }
      ],
      "stateMutability": "pure",
      "type": "function"
    },
    {
      "inputs": [
        {
          "internalType": "bytes32",
          "name": "role",
          "type": "bytes32"
        }
      ],
      "name": "getRoleAdmin",
      "outputs": [
        {
          "internalType": "bytes32",
          "name": "",
          "type": "bytes32"
        }
      ],
      "stateMutability": "view",
      "type": "function"
    },
    {
      "inputs": [
        {
          "internalType": "bytes32",
          "name": "role",
          "type": "bytes32"
        },
        {
          "internalType": "address",
          "name": "account",
          "type": "address"
        }
      ],
      "name": "grantRole",
      "outputs": [],
      "stateMutability": "nonpayable",
      "type": "function"
    },
    {
      "inputs": [],
      "name": "halomToken",
      "outputs": [
        {
          "internalType": "contract IHalomToken",
          "name": "",
          "type": "address"
        }
      ],
      "stateMutability": "view",
      "type": "function"
    },
    {
      "inputs": [
        {
          "internalType": "bytes32",
          "name": "role",
          "type": "bytes32"
        },
        {
          "internalType": "address",
          "name": "account",
          "type": "address"
        }
      ],
      "name": "hasRole",
      "outputs": [
        {
          "internalType": "bool",
          "name": "",
          "type": "bool"
        }
      ],
      "stateMutability": "view",
      "type": "function"
    },
    {
      "inputs": [],
      "name": "lockBoostB0",
      "outputs": [
        {
          "internalType": "uint256",
          "name": "",
          "type": "uint256"
        }
      ],
      "stateMutability": "view",
      "type": "function"
    },
    {
      "inputs": [],
      "name": "lockBoostTMax",
      "outputs": [
        {
          "internalType": "uint256",
          "name": "",
          "type": "uint256"
        }
      ],
      "stateMutability": "view",
      "type": "function"
    },
    {
      "inputs": [
        {
          "internalType": "address",
          "name": "user",
          "type": "address"
        }
      ],
      "name": "pendingRewards",
      "outputs": [
        {
          "internalType": "uint256",
          "name": "",
          "type": "uint256"
        }
      ],
      "stateMutability": "view",
      "type": "function"
    },
    {
      "inputs": [
        {
          "internalType": "bytes32",
          "name": "role",
          "type": "bytes32"
        },
        {
          "internalType": "address",
          "name": "account",
          "type": "address"
        }
      ],
      "name": "renounceRole",
      "outputs": [],
      "stateMutability": "nonpayable",
      "type": "function"
    },
    {
      "inputs": [
        {
          "internalType": "bytes32",
          "name": "role",
          "type": "bytes32"
        },
        {
          "internalType": "address",
          "name": "account",
          "type": "address"
        }
      ],
      "name": "revokeRole",
      "outputs": [],
      "stateMutability": "nonpayable",
      "type": "function"
    },
    {
      "inputs": [],
      "name": "rewardsPerShare",
      "outputs": [
        {
          "internalType": "uint256",
          "name": "",
          "type": "uint256"
        }
      ],
      "stateMutability": "view",
      "type": "function"
    },
    {
      "inputs": [
        {
          "internalType": "uint256",
          "name": "_newRate",
          "type": "uint256"
        }
      ],
      "name": "setCommissionRate",
      "outputs": [],
      "stateMutability": "nonpayable",
      "type": "function"
    },
    {
      "inputs": [
        {
          "internalType": "uint256",
          "name": "_newB0",
          "type": "uint256"
        },
        {
          "internalType": "uint256",
          "name": "_newTMax",
          "type": "uint256"
        }
      ],
      "name": "setLockBoostParams",
      "outputs": [],
      "stateMutability": "nonpayable",
      "type": "function"
    },
    {
      "inputs": [
        {
          "internalType": "address",
          "name": "validator",
          "type": "address"
        },
        {
          "internalType": "uint256",
          "name": "amountToSlash",
          "type": "uint256"
        }
      ],
      "name": "slash",
      "outputs": [],
      "stateMutability": "nonpayable",
      "type": "function"
    },
    {
      "inputs": [
        {
          "internalType": "uint256",
          "name": "amount",
          "type": "uint256"
        },
        {
          "internalType": "uint256",
          "name": "lockDuration",
          "type": "uint256"
        }
      ],
      "name": "stake",
      "outputs": [],
      "stateMutability": "nonpayable",
      "type": "function"
    },
    {
      "inputs": [
        {
          "internalType": "uint256",
          "name": "amount",
          "type": "uint256"
        },
        {
          "internalType": "enum HalomStaking.LockPeriod",
          "name": "lockPeriod",
          "type": "uint8"
        }
      ],
      "name": "stakeWithLockPeriod",
      "outputs": [],
      "stateMutability": "nonpayable",
      "type": "function"
    },
    {
      "inputs": [
        {
          "internalType": "address",
          "name": "",
          "type": "address"
        }
      ],
      "name": "stakes",
      "outputs": [
        {
          "internalType": "uint256",
          "name": "amount",
          "type": "uint256"
        },
        {
          "internalType": "uint256",
          "name": "rewardDebt",
          "type": "uint256"
        },
        {
          "internalType": "uint256",
          "name": "lockUntil",
          "type": "uint256"
        },
        {
          "internalType": "enum HalomStaking.LockPeriod",
          "name": "lockPeriod",
          "type": "uint8"
        }
      ],
      "stateMutability": "view",
      "type": "function"
    },
    {
      "inputs": [
        {
          "internalType": "bytes4",
          "name": "interfaceId",
          "type": "bytes4"
        }
      ],
      "name": "supportsInterface",
      "outputs": [
        {
          "internalType": "bool",
          "name": "",
          "type": "bool"
        }
      ],
      "stateMutability": "view",
      "type": "function"
    },
    {
      "inputs": [],
      "name": "totalStaked",
      "outputs": [
        {
          "internalType": "uint256",
          "name": "",
          "type": "uint256"
        }
      ],
      "stateMutability": "view",
      "type": "function"
    },
    {
      "inputs": [
        {
          "internalType": "uint256",
          "name": "amount",
          "type": "uint256"
        }
      ],
      "name": "unstake",
      "outputs": [],
      "stateMutability": "nonpayable",
      "type": "function"
    },
    {
      "inputs": [
        {
          "internalType": "address",
          "name": "",
          "type": "address"
        }
      ],
      "name": "validatorCommission",
      "outputs": [
        {
          "internalType": "uint256",
          "name": "",
          "type": "uint256"
        }
      ],
      "stateMutability": "view",
      "type": "function"
    }
  ],
  "bytecode": "0x60a06040523480156200001157600080fd5b5060405162003019380380620030198339818101604052810190620000379190620002a2565b600180819055508173ffffffffffffffffffffffffffffffffffffffff1660808173ffffffffffffffffffffffffffffffffffffffff1681525050620000876000801b82620000d560201b60201c565b620000b97f7935bd0ae54bc31f548c14dba4d37c5c64b3f8ca900cb468fb8abd54d5894f5582620000d560201b60201c565b6107d06007819055506301e133806008819055505050620002e9565b620000e78282620001c660201b60201c565b620001c257600160008084815260200190815260200160002060000160008373ffffffffffffffffffffffffffffffffffffffff1673ffffffffffffffffffffffffffffffffffffffff16815260200190815260200160002060006101000a81548160ff021916908315150217905550620001676200023060201b60201c565b73ffffffffffffffffffffffffffffffffffffffff168173ffffffffffffffffffffffffffffffffffffffff16837f2f8788117e7eff1d82e926ec794901d17c78024a50270940304540a733656f0d60405160405180910390a45b5050565b600080600084815260200190815260200160002060000160008373ffffffffffffffffffffffffffffffffffffffff1673ffffffffffffffffffffffffffffffffffffffff16815260200190815260200160002060009054906101000a900460ff16905092915050565b600033905090565b600080fd5b600073ffffffffffffffffffffffffffffffffffffffff82169050919050565b60006200026a826200023d565b9050919050565b6200027c816200025d565b81146200028857600080fd5b50565b6000815190506200029c8162000271565b92915050565b60008060408385031215620002bc57620002bb62000238565b5b6000620002cc858286016200028b565b9250506020620002df858286016200028b565b9150509250929050565b608051612cea6200032f6000396000818161085601528181610bd301528181610e7901528181610f39015281816112240152818161141a01526116e90152612cea6000f3fe608060405234801561001057600080fd5b50600436106101c45760003560e01c8063817b1cd2116100f9578063beceed3911610097578063d547741f11610071578063d547741f1461051c578063e51a87a314610538578063f13e9f9414610554578063f38f974514610572576101c4565b8063beceed39146104c4578063c7e1d0b1146104e0578063ccc57490146104fe576101c4565b80638d23fc61116100d35780638d23fc611461042857806391d1485414610458578063a217fddf14610488578063ae97dde8146104a6576101c4565b8063817b1cd2146103aa578063833f378a146103c857806383a25078146103f8576101c4565b80632e17de781161016657806336568abe1161014057806336568abe1461034a578063372500ab146103665780635e079d67146103705780637b0472f01461038e576101c4565b80632e17de78146102e25780632f2ff15d146102fe57806331d7a2621461031a576101c4565b806316934fc4116101a257806316934fc41461024557806319fac8fd146102785780631f5142bd14610294578063248a9ca3146102b2576101c4565b806301ffc9a7146101c957806302211f5e146101f957806302fb4d8514610229575b600080fd5b6101e360048036038101906101de9190611d96565b61058e565b6040516101f09190611dde565b60405180910390f35b610213600480360381019061020e9190611e57565b610608565b6040516102209190611e9d565b60405180910390f35b610243600480360381019061023e9190611ee4565b610743565b005b61025f600480360381019061025a9190611e57565b610948565b60405161026f9493929190611f9b565b60405180910390f35b610292600480360381019061028d9190611fe0565b610985565b005b61029c610a96565b6040516102a99190611e9d565b60405180910390f35b6102cc60048036038101906102c79190612043565b610a9c565b6040516102d9919061207f565b60405180910390f35b6102fc60048036038101906102f79190611fe0565b610abb565b005b6103186004803603810190610313919061209a565b610cca565b005b610334600480360381019061032f9190611e57565b610ceb565b6040516103419190611e9d565b60405180910390f35b610364600480360381019061035f919061209a565b610dd9565b005b61036e610e5c565b005b610378610e77565b6040516103859190612139565b60405180910390f35b6103a860048036038101906103a39190612154565b610e9b565b005b6103b261103c565b6040516103bf9190611e9d565b60405180910390f35b6103e260048036038101906103dd91906121b9565b611042565b6040516103ef9190611e9d565b60405180910390f35b610412600480360381019061040d9190611e57565b611160565b60405161041f9190611e9d565b60405180910390f35b610442600480360381019061043d9190611e57565b611178565b60405161044f91906121f5565b60405180910390f35b610472600480360381019061046d919061209a565b6111ab565b60405161047f9190611dde565b60405180910390f35b610490611215565b60405161049d919061207f565b60405180910390f35b6104ae61121c565b6040516104bb9190611e9d565b60405180910390f35b6104de60048036038101906104d99190611fe0565b611222565b005b6104e86112f8565b6040516104f59190611e9d565b60405180910390f35b6105066112fe565b604051610513919061207f565b60405180910390f35b6105366004803603810190610531919061209a565b611322565b005b610552600480360381019061054d9190612210565b611343565b005b61055c61151d565b6040516105699190611e9d565b60405180910390f35b61058c60048036038101906105879190612154565b611523565b005b60007f7965db0b000000000000000000000000000000000000000000000000000000007bffffffffffffffffffffffffffffffffffffffffffffffffffffffff1916827bffffffffffffffffffffffffffffffffffffffffffffffffffffffff191614806106015750610600826115fb565b5b9050919050565b600080600460008473ffffffffffffffffffffffffffffffffffffffff1673ffffffffffffffffffffffffffffffffffffffff1681526020019081526020016000206040518060800160405290816000820154815260200160018201548152602001600282015481526020016003820160009054906101000a900460ff16600381111561069857610697611f24565b5b60038111156106aa576106a9611f24565b5b81525050905060008160000151036106c657600091505061073e565b6000428260400151116106da5760006106eb565b4282604001516106ea919061227f565b5b905060006008546007548361070091906122b3565b61070a9190612324565b905061271081846000015161071f91906122b3565b6107299190612324565b83600001516107389190612355565b93505050505b919050565b7f7935bd0ae54bc31f548c14dba4d37c5c64b3f8ca900cb468fb8abd54d5894f5561076d81611665565b610775611679565b6000600460008573ffffffffffffffffffffffffffffffffffffffff1673ffffffffffffffffffffffffffffffffffffffff168152602001908152602001600020905082816000015410156107ff576040517f08c379a00000000000000000000000000000000000000000000000000000000081526004016107f69061240c565b60405180910390fd5b82816000016000828254610813919061227f565b92505081905550826002600082825461082c919061227f565b9250508190555060006002846108429190612324565b905060008185610852919061227f565b90507f000000000000000000000000000000000000000000000000000000000000000073ffffffffffffffffffffffffffffffffffffffff166379cc679030846040518363ffffffff1660e01b81526004016108af92919061242c565b600060405180830381600087803b1580156108c957600080fd5b505af11580156108dd573d6000803e3d6000fd5b505050506108ea81611222565b8573ffffffffffffffffffffffffffffffffffffffff167f4ed05e9673c26d2ed44f7ef6a7f2942df0ee3b5e1e17db4b99f9dcd261a339cd866040516109309190611e9d565b60405180910390a25050506109436116c8565b505050565b60046020528060005260406000206000915090508060000154908060010154908060020154908060030160009054906101000a900460ff16905084565b6000600460003373ffffffffffffffffffffffffffffffffffffffff1673ffffffffffffffffffffffffffffffffffffffff1681526020019081526020016000206000015411610a0a576040517f08c379a0000000000000000000000000000000000000000000000000000000008152600401610a01906124c7565b60405180910390fd5b6107d0811115610a4f576040517f08c379a0000000000000000000000000000000000000000000000000000000008152600401610a4690612559565b60405180910390fd5b80600660003373ffffffffffffffffffffffffffffffffffffffff1673ffffffffffffffffffffffffffffffffffffffff1681526020019081526020016000208190555050565b60085481565b6000806000838152602001908152602001600020600101549050919050565b610ac3611679565b6000600460003373ffffffffffffffffffffffffffffffffffffffff1673ffffffffffffffffffffffffffffffffffffffff16815260200190815260200160002090508060020154421015610b4d576040517f08c379a0000000000000000000000000000000000000000000000000000000008152600401610b44906125c5565b60405180910390fd5b8181600001541015610b94576040517f08c379a0000000000000000000000000000000000000000000000000000000008152600401610b8b90612631565b60405180910390fd5b610b9d336116d1565b81816000016000828254610bb1919061227f565b925050819055508160026000828254610bca919061227f565b925050819055507f000000000000000000000000000000000000000000000000000000000000000073ffffffffffffffffffffffffffffffffffffffff1663a9059cbb33846040518363ffffffff1660e01b8152600401610c2c92919061242c565b6020604051808303816000875af1158015610c4b573d6000803e3d6000fd5b505050506040513d601f19601f82011682018060405250810190610c6f919061267d565b503373ffffffffffffffffffffffffffffffffffffffff167f0f5bb82176feb1b5e747e28471aa92156a04d9f3ab9f45f28e2d704232b93f7583604051610cb69190611e9d565b60405180910390a250610cc76116c8565b50565b610cd382610a9c565b610cdc81611665565b610ce68383611882565b505050565b600080600460008473ffffffffffffffffffffffffffffffffffffffff1673ffffffffffffffffffffffffffffffffffffffff1681526020019081526020016000206040518060800160405290816000820154815260200160018201548152602001600282015481526020016003820160009054906101000a900460ff166003811115610d7b57610d7a611f24565b5b6003811115610d8d57610d8c611f24565b5b8152505090506000610d9e84610608565b90508160200151670de0b6b3a764000060035483610dbc91906122b3565b610dc69190612324565b610dd0919061227f565b92505050919050565b610de1611962565b73ffffffffffffffffffffffffffffffffffffffff168173ffffffffffffffffffffffffffffffffffffffff1614610e4e576040517f08c379a0000000000000000000000000000000000000000000000000000000008152600401610e459061271c565b60405180910390fd5b610e58828261196a565b5050565b610e64611679565b610e6d336116d1565b610e756116c8565b565b7f000000000000000000000000000000000000000000000000000000000000000081565b610ea3611679565b610eac336116d1565b6000600460003373ffffffffffffffffffffffffffffffffffffffff1673ffffffffffffffffffffffffffffffffffffffff168152602001908152602001600020905082816000016000828254610f039190612355565b925050819055508142610f169190612355565b81600201819055508260026000828254610f309190612355565b925050819055507f000000000000000000000000000000000000000000000000000000000000000073ffffffffffffffffffffffffffffffffffffffff166323b872dd3330866040518463ffffffff1660e01b8152600401610f949392919061273c565b6020604051808303816000875af1158015610fb3573d6000803e3d6000fd5b505050506040513d601f19601f82011682018060405250810190610fd7919061267d565b503373ffffffffffffffffffffffffffffffffffffffff167f11046f741396910185536955c79ec22a76d04229d188bc13962f8331b81008a9848360020154600060405161102793929190612773565b60405180910390a2506110386116c8565b5050565b60025481565b600080600381111561105757611056611f24565b5b82600381111561106a57611069611f24565b5b0361107a576276a700905061115b565b6001600381111561108e5761108d611f24565b5b8260038111156110a1576110a0611f24565b5b036110b15762ed4e00905061115b565b600260038111156110c5576110c4611f24565b5b8260038111156110d8576110d7611f24565b5b036110e9576301e13380905061115b565b6003808111156110fc576110fb611f24565b5b82600381111561110f5761110e611f24565b5b03611120576303c26700905061115b565b6040517f08c379a0000000000000000000000000000000000000000000000000000000008152600401611152906127f6565b60405180910390fd5b919050565b60066020528060005260406000206000915090505481565b60056020528060005260406000206000915054906101000a900473ffffffffffffffffffffffffffffffffffffffff1681565b600080600084815260200190815260200160002060000160008373ffffffffffffffffffffffffffffffffffffffff1673ffffffffffffffffffffffffffffffffffffffff16815260200190815260200160002060009054906101000a900460ff16905092915050565b6000801b81565b6107d081565b7f000000000000000000000000000000000000000000000000000000000000000073ffffffffffffffffffffffffffffffffffffffff163373ffffffffffffffffffffffffffffffffffffffff16146112b0576040517f08c379a00000000000000000000000000000000000000000000000000000000081526004016112a790612888565b60405180910390fd5b600060025411156112f557600254670de0b6b3a7640000826112d291906122b3565b6112dc9190612324565b600360008282546112ed9190612355565b925050819055505b50565b60035481565b7f7935bd0ae54bc31f548c14dba4d37c5c64b3f8ca900cb468fb8abd54d5894f5581565b61132b82610a9c565b61133481611665565b61133e838361196a565b505050565b61134b611679565b600061135682611042565b9050611361336116d1565b6000600460003373ffffffffffffffffffffffffffffffffffffffff1673ffffffffffffffffffffffffffffffffffffffff1681526020019081526020016000209050838160000160008282546113b89190612355565b9250508190555081426113cb9190612355565b8160020181905550828160030160006101000a81548160ff021916908360038111156113fa576113f9611f24565b5b021790555083600260008282546114119190612355565b925050819055507f000000000000000000000000000000000000000000000000000000000000000073ffffffffffffffffffffffffffffffffffffffff166323b872dd3330876040518463ffffffff1660e01b81526004016114759392919061273c565b6020604051808303816000875af1158015611494573d6000803e3d6000fd5b505050506040513d601f19601f820116820180604052508101906114b8919061267d565b503373ffffffffffffffffffffffffffffffffffffffff167f11046f741396910185536955c79ec22a76d04229d188bc13962f8331b81008a98583600201548660405161150793929190612773565b60405180910390a250506115196116c8565b5050565b60075481565b7f7935bd0ae54bc31f548c14dba4d37c5c64b3f8ca900cb468fb8abd54d5894f5561154d81611665565b611388831115611592576040517f08c379a0000000000000000000000000000000000000000000000000000000008152600401611589906128f4565b60405180910390fd5b62278d0082101580156115a957506303c267008211155b6115e8576040517f08c379a00000000000000000000000000000000000000000000000000000000081526004016115df90612986565b60405180910390fd5b8260078190555081600881905550505050565b60007f01ffc9a7000000000000000000000000000000000000000000000000000000007bffffffffffffffffffffffffffffffffffffffffffffffffffffffff1916827bffffffffffffffffffffffffffffffffffffffffffffffffffffffff1916149050919050565b61167681611671611962565b611a4b565b50565b6002600154036116be576040517f08c379a00000000000000000000000000000000000000000000000000000000081526004016116b5906129f2565b60405180910390fd5b6002600181905550565b60018081905550565b60006116dc82610ceb565b905060008111156117d5577f000000000000000000000000000000000000000000000000000000000000000073ffffffffffffffffffffffffffffffffffffffff1663a9059cbb83836040518363ffffffff1660e01b815260040161174292919061242c565b6020604051808303816000875af1158015611761573d6000803e3d6000fd5b505050506040513d601f19601f82011682018060405250810190611785919061267d565b508173ffffffffffffffffffffffffffffffffffffffff167ffc30cddea38e2bf4d6ea7d3f9ed3b6ad7f176419f4963bd81318067a4aee73fe826040516117cc9190611e9d565b60405180910390a25b670de0b6b3a7640000600354600460008573ffffffffffffffffffffffffffffffffffffffff1673ffffffffffffffffffffffffffffffffffffffff1681526020019081526020016000206000015461182e91906122b3565b6118389190612324565b600460008473ffffffffffffffffffffffffffffffffffffffff1673ffffffffffffffffffffffffffffffffffffffff168152602001908152602001600020600101819055505050565b61188c82826111ab565b61195e57600160008084815260200190815260200160002060000160008373ffffffffffffffffffffffffffffffffffffffff1673ffffffffffffffffffffffffffffffffffffffff16815260200190815260200160002060006101000a81548160ff021916908315150217905550611903611962565b73ffffffffffffffffffffffffffffffffffffffff168173ffffffffffffffffffffffffffffffffffffffff16837f2f8788117e7eff1d82e926ec794901d17c78024a50270940304540a733656f0d60405160405180910390a45b5050565b600033905090565b61197482826111ab565b15611a4757600080600084815260200190815260200160002060000160008373ffffffffffffffffffffffffffffffffffffffff1673ffffffffffffffffffffffffffffffffffffffff16815260200190815260200160002060006101000a81548160ff0219169083151502179055506119ec611962565b73ffffffffffffffffffffffffffffffffffffffff168173ffffffffffffffffffffffffffffffffffffffff16837ff6391f5c32d9c69d2a47ea670b442974b53935d1edc7fd64eb21e047a839171b60405160405180910390a45b5050565b611a5582826111ab565b611acc57611a6281611ad0565b611a708360001c6020611afd565b604051602001611a81929190612b1b565b6040516020818303038152906040526040517f08c379a0000000000000000000000000000000000000000000000000000000008152600401611ac39190612b9f565b60405180910390fd5b5050565b6060611af68273ffffffffffffffffffffffffffffffffffffffff16601460ff16611afd565b9050919050565b606060006002836002611b1091906122b3565b611b1a9190612355565b67ffffffffffffffff811115611b3357611b32612bc1565b5b6040519080825280601f01601f191660200182016040528015611b655781602001600182028036833780820191505090505b5090507f300000000000000000000000000000000000000000000000000000000000000081600081518110611b9d57611b9c612bf0565b5b60200101907effffffffffffffffffffffffffffffffffffffffffffffffffffffffffffff1916908160001a9053507f780000000000000000000000000000000000000000000000000000000000000081600181518110611c0157611c00612bf0565b5b60200101907effffffffffffffffffffffffffffffffffffffffffffffffffffffffffffff1916908160001a90535060006001846002611c4191906122b3565b611c4b9190612355565b90505b6001811115611ceb577f3031323334353637383961626364656600000000000000000000000000000000600f861660108110611c8d57611c8c612bf0565b5b1a60f81b828281518110611ca457611ca3612bf0565b5b60200101907effffffffffffffffffffffffffffffffffffffffffffffffffffffffffffff1916908160001a905350600485901c945080611ce490612c1f565b9050611c4e565b5060008414611d2f576040517f08c379a0000000000000000000000000000000000000000000000000000000008152600401611d2690612c94565b60405180910390fd5b8091505092915050565b600080fd5b60007fffffffff0000000000000000000000000000000000000000000000000000000082169050919050565b611d7381611d3e565b8114611d7e57600080fd5b50565b600081359050611d9081611d6a565b92915050565b600060208284031215611dac57611dab611d39565b5b6000611dba84828501611d81565b91505092915050565b60008115159050919050565b611dd881611dc3565b82525050565b6000602082019050611df36000830184611dcf565b92915050565b600073ffffffffffffffffffffffffffffffffffffffff82169050919050565b6000611e2482611df9565b9050919050565b611e3481611e19565b8114611e3f57600080fd5b50565b600081359050611e5181611e2b565b92915050565b600060208284031215611e6d57611e6c611d39565b5b6000611e7b84828501611e42565b91505092915050565b6000819050919050565b611e9781611e84565b82525050565b6000602082019050611eb26000830184611e8e565b92915050565b611ec181611e84565b8114611ecc57600080fd5b50565b600081359050611ede81611eb8565b92915050565b60008060408385031215611efb57611efa611d39565b5b6000611f0985828601611e42565b9250506020611f1a85828601611ecf565b9150509250929050565b7f4e487b7100000000000000000000000000000000000000000000000000000000600052602160045260246000fd5b60048110611f6457611f63611f24565b5b50565b6000819050611f7582611f53565b919050565b6000611f8582611f67565b9050919050565b611f9581611f7a565b82525050565b6000608082019050611fb06000830187611e8e565b611fbd6020830186611e8e565b611fca6040830185611e8e565b611fd76060830184611f8c565b95945050505050565b600060208284031215611ff657611ff5611d39565b5b600061200484828501611ecf565b91505092915050565b6000819050919050565b6120208161200d565b811461202b57600080fd5b50565b60008135905061203d81612017565b92915050565b60006020828403121561205957612058611d39565b5b60006120678482850161202e565b91505092915050565b6120798161200d565b82525050565b60006020820190506120946000830184612070565b92915050565b600080604083850312156120b1576120b0611d39565b5b60006120bf8582860161202e565b92505060206120d085828601611e42565b9150509250929050565b6000819050919050565b60006120ff6120fa6120f584611df9565b6120da565b611df9565b9050919050565b6000612111826120e4565b9050919050565b600061212382612106565b9050919050565b61213381612118565b82525050565b600060208201905061214e600083018461212a565b92915050565b6000806040838503121561216b5761216a611d39565b5b600061217985828601611ecf565b925050602061218a85828601611ecf565b9150509250929050565b600481106121a157600080fd5b50565b6000813590506121b381612194565b92915050565b6000602082840312156121cf576121ce611d39565b5b60006121dd848285016121a4565b91505092915050565b6121ef81611e19565b82525050565b600060208201905061220a60008301846121e6565b92915050565b6000806040838503121561222757612226611d39565b5b600061223585828601611ecf565b9250506020612246858286016121a4565b9150509250929050565b7f4e487b7100000000000000000000000000000000000000000000000000000000600052601160045260246000fd5b600061228a82611e84565b915061229583611e84565b92508282039050818111156122ad576122ac612250565b5b92915050565b60006122be82611e84565b91506122c983611e84565b92508282026122d781611e84565b915082820484148315176122ee576122ed612250565b5b5092915050565b7f4e487b7100000000000000000000000000000000000000000000000000000000600052601260045260246000fd5b600061232f82611e84565b915061233a83611e84565b92508261234a576123496122f5565b5b828204905092915050565b600061236082611e84565b915061236b83611e84565b925082820190508082111561238357612382612250565b5b92915050565b600082825260208201905092915050565b7f48616c6f6d5374616b696e673a20536c61736820616d6f756e7420657863656560008201527f6473207374616b65000000000000000000000000000000000000000000000000602082015250565b60006123f6602883612389565b91506124018261239a565b604082019050919050565b60006020820190508181036000830152612425816123e9565b9050919050565b600060408201905061244160008301856121e6565b61244e6020830184611e8e565b9392505050565b7f48616c6f6d5374616b696e673a204e6f742061207374616b65722c2063616e6e60008201527f6f7420626520612076616c696461746f72000000000000000000000000000000602082015250565b60006124b1603183612389565b91506124bc82612455565b604082019050919050565b600060208201905081810360008301526124e0816124a4565b9050919050565b7f48616c6f6d5374616b696e673a20436f6d6d697373696f6e206578636565647360008201527f206d6178696d756d000000000000000000000000000000000000000000000000602082015250565b6000612543602883612389565b915061254e826124e7565b604082019050919050565b6000602082019050818103600083015261257281612536565b9050919050565b7f48616c6f6d5374616b696e673a20546f6b656e7320617265206c6f636b656400600082015250565b60006125af601f83612389565b91506125ba82612579565b602082019050919050565b600060208201905081810360008301526125de816125a2565b9050919050565b7f48616c6f6d5374616b696e673a20496e73756666696369656e74207374616b65600082015250565b600061261b602083612389565b9150612626826125e5565b602082019050919050565b6000602082019050818103600083015261264a8161260e565b9050919050565b61265a81611dc3565b811461266557600080fd5b50565b60008151905061267781612651565b92915050565b60006020828403121561269357612692611d39565b5b60006126a184828501612668565b91505092915050565b7f416363657373436f6e74726f6c3a2063616e206f6e6c792072656e6f756e636560008201527f20726f6c657320666f722073656c660000000000000000000000000000000000602082015250565b6000612706602f83612389565b9150612711826126aa565b604082019050919050565b60006020820190508181036000830152612735816126f9565b9050919050565b600060608201905061275160008301866121e6565b61275e60208301856121e6565b61276b6040830184611e8e565b949350505050565b60006060820190506127886000830186611e8e565b6127956020830185611e8e565b6127a26040830184611f8c565b949350505050565b7f496e76616c6964206c6f636b20706572696f6400000000000000000000000000600082015250565b60006127e0601383612389565b91506127eb826127aa565b602082019050919050565b6000602082019050818103600083015261280f816127d3565b9050919050565b7f48616c6f6d5374616b696e673a204e6f742074686520746f6b656e20636f6e7460008201527f7261637400000000000000000000000000000000000000000000000000000000602082015250565b6000612872602483612389565b915061287d82612816565b604082019050919050565b600060208201905081810360008301526128a181612865565b9050919050565b7f42302063616e6e6f742065786365656420353025000000000000000000000000600082015250565b60006128de601483612389565b91506128e9826128a8565b602082019050919050565b6000602082019050818103600083015261290d816128d1565b9050919050565b7f544d6178206d757374206265206265747765656e20333020616e64203733302060008201527f6461797300000000000000000000000000000000000000000000000000000000602082015250565b6000612970602483612389565b915061297b82612914565b604082019050919050565b6000602082019050818103600083015261299f81612963565b9050919050565b7f5265656e7472616e637947756172643a207265656e7472616e742063616c6c00600082015250565b60006129dc601f83612389565b91506129e7826129a6565b602082019050919050565b60006020820190508181036000830152612a0b816129cf565b9050919050565b600081905092915050565b7f416363657373436f6e74726f6c3a206163636f756e7420000000000000000000600082015250565b6000612a53601783612a12565b9150612a5e82612a1d565b601782019050919050565b600081519050919050565b60005b83811015612a92578082015181840152602081019050612a77565b60008484015250505050565b6000612aa982612a69565b612ab38185612a12565b9350612ac3818560208601612a74565b80840191505092915050565b7f206973206d697373696e6720726f6c6520000000000000000000000000000000600082015250565b6000612b05601183612a12565b9150612b1082612acf565b601182019050919050565b6000612b2682612a46565b9150612b328285612a9e565b9150612b3d82612af8565b9150612b498284612a9e565b91508190509392505050565b6000601f19601f8301169050919050565b6000612b7182612a69565b612b7b8185612389565b9350612b8b818560208601612a74565b612b9481612b55565b840191505092915050565b60006020820190508181036000830152612bb98184612b66565b905092915050565b7f4e487b7100000000000000000000000000000000000000000000000000000000600052604160045260246000fd5b7f4e487b7100000000000000000000000000000000000000000000000000000000600052603260045260246000fd5b6000612c2a82611e84565b915060008203612c3d57612c3c612250565b5b600182039050919050565b7f537472696e67733a20686578206c656e67746820696e73756666696369656e74600082015250565b6000612c7e602083612389565b9150612c8982612c48565b602082019050919050565b60006020820190508181036000830152612cad81612c71565b905091905056fea26469706673582212203fc6a546479ccdabb13c637e9d121a8620696364071861419f18a09fd07fb65064736f6c63430008140033",
  "linkReferences": {},
  "deployedLinkReferences": {}
}