{
  "_format": "hh-sol-artifact-1",
  "contractName": "HalomToken",
  "sourceName": "contracts/HalomToken.sol",
  "abi": [
    {
      "inputs": [
        {
          "internalType": "address",
          "name": "_oracleAddress",
          "type": "address"
        },
        {
          "internalType": "address",
          "name": "_governance",
          "type": "address"
        }
      ],
      "stateMutability": "nonpayable",
      "type": "constructor"
    },
    {
      "anonymous": false,
      "inputs": [
        {
          "indexed": true,
          "internalType": "address",
          "name": "owner",
          "type": "address"
        },
        {
          "indexed": true,
          "internalType": "address",
          "name": "spender",
          "type": "address"
        },
        {
          "indexed": false,
          "internalType": "uint256",
          "name": "value",
          "type": "uint256"
        }
      ],
      "name": "Approval",
      "type": "event"
    },
    {
      "anonymous": false,
      "inputs": [
        {
          "indexed": false,
          "internalType": "uint256",
          "name": "newTotalSupply",
          "type": "uint256"
        },
        {
          "indexed": false,
          "internalType": "int256",
          "name": "supplyDelta",
          "type": "int256"
        }
      ],
      "name": "Rebase",
      "type": "event"
    },
    {
      "anonymous": false,
      "inputs": [
        {
          "indexed": true,
          "internalType": "bytes32",
          "name": "role",
          "type": "bytes32"
        },
        {
          "indexed": true,
          "internalType": "bytes32",
          "name": "previousAdminRole",
          "type": "bytes32"
        },
        {
          "indexed": true,
          "internalType": "bytes32",
          "name": "newAdminRole",
          "type": "bytes32"
        }
      ],
      "name": "RoleAdminChanged",
      "type": "event"
    },
    {
      "anonymous": false,
      "inputs": [
        {
          "indexed": true,
          "internalType": "bytes32",
          "name": "role",
          "type": "bytes32"
        },
        {
          "indexed": true,
          "internalType": "address",
          "name": "account",
          "type": "address"
        },
        {
          "indexed": true,
          "internalType": "address",
          "name": "sender",
          "type": "address"
        }
      ],
      "name": "RoleGranted",
      "type": "event"
    },
    {
      "anonymous": false,
      "inputs": [
        {
          "indexed": true,
          "internalType": "bytes32",
          "name": "role",
          "type": "bytes32"
        },
        {
          "indexed": true,
          "internalType": "address",
          "name": "account",
          "type": "address"
        },
        {
          "indexed": true,
          "internalType": "address",
          "name": "sender",
          "type": "address"
        }
      ],
      "name": "RoleRevoked",
      "type": "event"
    },
    {
      "anonymous": false,
      "inputs": [
        {
          "indexed": true,
          "internalType": "address",
          "name": "from",
          "type": "address"
        },
        {
          "indexed": true,
          "internalType": "address",
          "name": "to",
          "type": "address"
        },
        {
          "indexed": false,
          "internalType": "uint256",
          "name": "value",
          "type": "uint256"
        }
      ],
      "name": "Transfer",
      "type": "event"
    },
    {
      "inputs": [],
      "name": "DEFAULT_ADMIN_ROLE",
      "outputs": [
        {
          "internalType": "bytes32",
          "name": "",
          "type": "bytes32"
        }
      ],
      "stateMutability": "view",
      "type": "function"
    },
    {
      "inputs": [],
      "name": "REBASE_CALLER",
      "outputs": [
        {
          "internalType": "bytes32",
          "name": "",
          "type": "bytes32"
        }
      ],
      "stateMutability": "view",
      "type": "function"
    },
    {
      "inputs": [],
      "name": "STAKING_CONTRACT",
      "outputs": [
        {
          "internalType": "bytes32",
          "name": "",
          "type": "bytes32"
        }
      ],
      "stateMutability": "view",
      "type": "function"
    },
    {
      "inputs": [
        {
          "internalType": "address",
          "name": "owner",
          "type": "address"
        },
        {
          "internalType": "address",
          "name": "spender",
          "type": "address"
        }
      ],
      "name": "allowance",
      "outputs": [
        {
          "internalType": "uint256",
          "name": "",
          "type": "uint256"
        }
      ],
      "stateMutability": "view",
      "type": "function"
    },
    {
      "inputs": [
        {
          "internalType": "address",
          "name": "spender",
          "type": "address"
        },
        {
          "internalType": "uint256",
          "name": "amount",
          "type": "uint256"
        }
      ],
      "name": "approve",
      "outputs": [
        {
          "internalType": "bool",
          "name": "",
          "type": "bool"
        }
      ],
      "stateMutability": "nonpayable",
      "type": "function"
    },
    {
      "inputs": [
        {
          "internalType": "address",
          "name": "account",
          "type": "address"
        }
      ],
      "name": "balanceOf",
      "outputs": [
        {
          "internalType": "uint256",
          "name": "",
          "type": "uint256"
        }
      ],
      "stateMutability": "view",
      "type": "function"
    },
    {
      "inputs": [
        {
          "internalType": "address",
          "name": "account",
          "type": "address"
        },
        {
          "internalType": "uint256",
          "name": "amount",
          "type": "uint256"
        }
      ],
      "name": "burnFrom",
      "outputs": [],
      "stateMutability": "nonpayable",
      "type": "function"
    },
    {
      "inputs": [],
      "name": "decimals",
      "outputs": [
        {
          "internalType": "uint8",
          "name": "",
          "type": "uint8"
        }
      ],
      "stateMutability": "view",
      "type": "function"
    },
    {
      "inputs": [
        {
          "internalType": "address",
          "name": "spender",
          "type": "address"
        },
        {
          "internalType": "uint256",
          "name": "subtractedValue",
          "type": "uint256"
        }
      ],
      "name": "decreaseAllowance",
      "outputs": [
        {
          "internalType": "bool",
          "name": "",
          "type": "bool"
        }
      ],
      "stateMutability": "nonpayable",
      "type": "function"
    },
    {
      "inputs": [
        {
          "internalType": "bytes32",
          "name": "role",
          "type": "bytes32"
        }
      ],
      "name": "getRoleAdmin",
      "outputs": [
        {
          "internalType": "bytes32",
          "name": "",
          "type": "bytes32"
        }
      ],
      "stateMutability": "view",
      "type": "function"
    },
    {
      "inputs": [
        {
          "internalType": "bytes32",
          "name": "role",
          "type": "bytes32"
        },
        {
          "internalType": "address",
          "name": "account",
          "type": "address"
        }
      ],
      "name": "grantRole",
      "outputs": [],
      "stateMutability": "nonpayable",
      "type": "function"
    },
    {
      "inputs": [],
      "name": "halomStakingAddress",
      "outputs": [
        {
          "internalType": "address",
          "name": "",
          "type": "address"
        }
      ],
      "stateMutability": "view",
      "type": "function"
    },
    {
      "inputs": [
        {
          "internalType": "bytes32",
          "name": "role",
          "type": "bytes32"
        },
        {
          "internalType": "address",
          "name": "account",
          "type": "address"
        }
      ],
      "name": "hasRole",
      "outputs": [
        {
          "internalType": "bool",
          "name": "",
          "type": "bool"
        }
      ],
      "stateMutability": "view",
      "type": "function"
    },
    {
      "inputs": [
        {
          "internalType": "address",
          "name": "spender",
          "type": "address"
        },
        {
          "internalType": "uint256",
          "name": "addedValue",
          "type": "uint256"
        }
      ],
      "name": "increaseAllowance",
      "outputs": [
        {
          "internalType": "bool",
          "name": "",
          "type": "bool"
        }
      ],
      "stateMutability": "nonpayable",
      "type": "function"
    },
    {
      "inputs": [],
      "name": "maxRebaseDelta",
      "outputs": [
        {
          "internalType": "uint256",
          "name": "",
          "type": "uint256"
        }
      ],
      "stateMutability": "view",
      "type": "function"
    },
    {
      "inputs": [
        {
          "internalType": "address",
          "name": "to",
          "type": "address"
        },
        {
          "internalType": "uint256",
          "name": "amount",
          "type": "uint256"
        }
      ],
      "name": "mint",
      "outputs": [],
      "stateMutability": "nonpayable",
      "type": "function"
    },
    {
      "inputs": [],
      "name": "name",
      "outputs": [
        {
          "internalType": "string",
          "name": "",
          "type": "string"
        }
      ],
      "stateMutability": "view",
      "type": "function"
    },
    {
      "inputs": [
        {
          "internalType": "int256",
          "name": "supplyDelta",
          "type": "int256"
        }
      ],
      "name": "rebase",
      "outputs": [],
      "stateMutability": "nonpayable",
      "type": "function"
    },
    {
      "inputs": [
        {
          "internalType": "bytes32",
          "name": "role",
          "type": "bytes32"
        },
        {
          "internalType": "address",
          "name": "account",
          "type": "address"
        }
      ],
      "name": "renounceRole",
      "outputs": [],
      "stateMutability": "nonpayable",
      "type": "function"
    },
    {
      "inputs": [
        {
          "internalType": "bytes32",
          "name": "role",
          "type": "bytes32"
        },
        {
          "internalType": "address",
          "name": "account",
          "type": "address"
        }
      ],
      "name": "revokeRole",
      "outputs": [],
      "stateMutability": "nonpayable",
      "type": "function"
    },
    {
      "inputs": [],
      "name": "rewardRate",
      "outputs": [
        {
          "internalType": "uint256",
          "name": "",
          "type": "uint256"
        }
      ],
      "stateMutability": "view",
      "type": "function"
    },
    {
      "inputs": [
        {
          "internalType": "uint256",
          "name": "_newDelta",
          "type": "uint256"
        }
      ],
      "name": "setMaxRebaseDelta",
      "outputs": [],
      "stateMutability": "nonpayable",
      "type": "function"
    },
    {
      "inputs": [
        {
          "internalType": "uint256",
          "name": "_newRate",
          "type": "uint256"
        }
      ],
      "name": "setRewardRate",
      "outputs": [],
      "stateMutability": "nonpayable",
      "type": "function"
    },
    {
      "inputs": [
        {
          "internalType": "address",
          "name": "_stakingAddress",
          "type": "address"
        }
      ],
      "name": "setStakingContract",
      "outputs": [],
      "stateMutability": "nonpayable",
      "type": "function"
    },
    {
      "inputs": [
        {
          "internalType": "bytes4",
          "name": "interfaceId",
          "type": "bytes4"
        }
      ],
      "name": "supportsInterface",
      "outputs": [
        {
          "internalType": "bool",
          "name": "",
          "type": "bool"
        }
      ],
      "stateMutability": "view",
      "type": "function"
    },
    {
      "inputs": [],
      "name": "symbol",
      "outputs": [
        {
          "internalType": "string",
          "name": "",
          "type": "string"
        }
      ],
      "stateMutability": "view",
      "type": "function"
    },
    {
      "inputs": [],
      "name": "totalSupply",
      "outputs": [
        {
          "internalType": "uint256",
          "name": "",
          "type": "uint256"
        }
      ],
      "stateMutability": "view",
      "type": "function"
    },
    {
      "inputs": [
        {
          "internalType": "address",
          "name": "to",
          "type": "address"
        },
        {
          "internalType": "uint256",
          "name": "amount",
          "type": "uint256"
        }
      ],
      "name": "transfer",
      "outputs": [
        {
          "internalType": "bool",
          "name": "",
          "type": "bool"
        }
      ],
      "stateMutability": "nonpayable",
      "type": "function"
    },
    {
      "inputs": [
        {
          "internalType": "address",
          "name": "from",
          "type": "address"
        },
        {
          "internalType": "address",
          "name": "to",
          "type": "address"
        },
        {
          "internalType": "uint256",
          "name": "amount",
          "type": "uint256"
        }
      ],
      "name": "transferFrom",
      "outputs": [
        {
          "internalType": "bool",
          "name": "",
          "type": "bool"
        }
      ],
      "stateMutability": "nonpayable",
      "type": "function"
    }
  ],
  "bytecode": "0x60806040523480156200001157600080fd5b50604051620039853803806200398583398181016040528101906200003791906200043c565b6040518060400160405280600581526020017f48616c6f6d0000000000000000000000000000000000000000000000000000008152506040518060400160405280600381526020017f484f4d00000000000000000000000000000000000000000000000000000000008152508160039081620000b49190620006fd565b508060049081620000c69190620006fd565b5050506000620000db6200026460201b60201c565b600a620000e9919062000974565b620f4240620000f99190620009c5565b905080600a81905550807fffffffffffffffffffffffffffffffffffffffffffffffffffffffffffffffff62000130919062000a3f565b6007819055507fffffffffffffffffffffffffffffffffffffffffffffffffffffffffffffffff600660008473ffffffffffffffffffffffffffffffffffffffff1673ffffffffffffffffffffffffffffffffffffffff168152602001908152602001600020819055508173ffffffffffffffffffffffffffffffffffffffff16600073ffffffffffffffffffffffffffffffffffffffff167fddf252ad1be2c89b69c2b068fc378daa952ba7f163c4a11628f55a4df523b3ef83604051620001fa919062000a88565b60405180910390a3620002176000801b836200026d60201b60201c565b620002497fc479b43409b05e803d8b6457191b7babf09807901b4b347cc50f1200be1cb631846200026d60201b60201c565b6107d06008819055506101f4600b8190555050505062000aa5565b60006012905090565b6200027f82826200035f60201b60201c565b6200035b5760016005600084815260200190815260200160002060000160008373ffffffffffffffffffffffffffffffffffffffff1673ffffffffffffffffffffffffffffffffffffffff16815260200190815260200160002060006101000a81548160ff02191690831515021790555062000300620003ca60201b60201c565b73ffffffffffffffffffffffffffffffffffffffff168173ffffffffffffffffffffffffffffffffffffffff16837f2f8788117e7eff1d82e926ec794901d17c78024a50270940304540a733656f0d60405160405180910390a45b5050565b60006005600084815260200190815260200160002060000160008373ffffffffffffffffffffffffffffffffffffffff1673ffffffffffffffffffffffffffffffffffffffff16815260200190815260200160002060009054906101000a900460ff16905092915050565b600033905090565b600080fd5b600073ffffffffffffffffffffffffffffffffffffffff82169050919050565b60006200040482620003d7565b9050919050565b6200041681620003f7565b81146200042257600080fd5b50565b60008151905062000436816200040b565b92915050565b60008060408385031215620004565762000455620003d2565b5b6000620004668582860162000425565b9250506020620004798582860162000425565b9150509250929050565b600081519050919050565b7f4e487b7100000000000000000000000000000000000000000000000000000000600052604160045260246000fd5b7f4e487b7100000000000000000000000000000000000000000000000000000000600052602260045260246000fd5b600060028204905060018216806200050557607f821691505b6020821081036200051b576200051a620004bd565b5b50919050565b60008190508160005260206000209050919050565b60006020601f8301049050919050565b600082821b905092915050565b600060088302620005857fffffffffffffffffffffffffffffffffffffffffffffffffffffffffffffffff8262000546565b62000591868362000546565b95508019841693508086168417925050509392505050565b6000819050919050565b6000819050919050565b6000620005de620005d8620005d284620005a9565b620005b3565b620005a9565b9050919050565b6000819050919050565b620005fa83620005bd565b620006126200060982620005e5565b84845462000553565b825550505050565b600090565b620006296200061a565b62000636818484620005ef565b505050565b5b818110156200065e57620006526000826200061f565b6001810190506200063c565b5050565b601f821115620006ad57620006778162000521565b620006828462000536565b8101602085101562000692578190505b620006aa620006a18562000536565b8301826200063b565b50505b505050565b600082821c905092915050565b6000620006d260001984600802620006b2565b1980831691505092915050565b6000620006ed8383620006bf565b9150826002028217905092915050565b620007088262000483565b67ffffffffffffffff8111156200072457620007236200048e565b5b620007308254620004ec565b6200073d82828562000662565b600060209050601f83116001811462000775576000841562000760578287015190505b6200076c8582620006df565b865550620007dc565b601f198416620007858662000521565b60005b82811015620007af5784890151825560018201915060208501945060208101905062000788565b86831015620007cf5784890151620007cb601f891682620006bf565b8355505b6001600288020188555050505b505050505050565b7f4e487b7100000000000000000000000000000000000000000000000000000000600052601160045260246000fd5b60008160011c9050919050565b6000808291508390505b600185111562000872578086048111156200084a5762000849620007e4565b5b60018516156200085a5780820291505b80810290506200086a8562000813565b94506200082a565b94509492505050565b6000826200088d576001905062000960565b816200089d576000905062000960565b8160018114620008b65760028114620008c157620008f7565b600191505062000960565b60ff841115620008d657620008d5620007e4565b5b8360020a915084821115620008f057620008ef620007e4565b5b5062000960565b5060208310610133831016604e8410600b8410161715620009315782820a9050838111156200092b576200092a620007e4565b5b62000960565b62000940848484600162000820565b925090508184048111156200095a5762000959620007e4565b5b81810290505b9392505050565b600060ff82169050919050565b60006200098182620005a9565b91506200098e8362000967565b9250620009bd7fffffffffffffffffffffffffffffffffffffffffffffffffffffffffffffffff84846200087b565b905092915050565b6000620009d282620005a9565b9150620009df83620005a9565b9250828202620009ef81620005a9565b9150828204841483151762000a095762000a08620007e4565b5b5092915050565b7f4e487b7100000000000000000000000000000000000000000000000000000000600052601260045260246000fd5b600062000a4c82620005a9565b915062000a5983620005a9565b92508262000a6c5762000a6b62000a10565b5b828204905092915050565b62000a8281620005a9565b82525050565b600060208201905062000a9f600083018462000a77565b92915050565b612ed08062000ab56000396000f3fe608060405234801561001057600080fd5b50600436106101cf5760003560e01c80636d9a1572116101045780639e447fc6116100a2578063a9059cbb11610071578063a9059cbb14610542578063d547741f14610572578063da19ddfb1461058e578063dd62ed3e146105ac576101cf565b80639e447fc6146104ba578063a217fddf146104d6578063a457c2d7146104f4578063a4dea7a914610524576101cf565b80637b0a47ee116100de5780637b0a47ee1461043257806391d148541461045057806395d89b41146104805780639dd373b91461049e576101cf565b80636d9a1572146103c857806370a08231146103e657806379cc679014610416576101cf565b80632f2ff15d1161017157806337865ea21161014b57806337865ea214610342578063395093511461036057806340c10f1914610390578063648206c8146103ac576101cf565b80632f2ff15d146102ec578063313ce5671461030857806336568abe14610326576101cf565b80630ab114f9116101ad5780630ab114f91461025257806318160ddd1461026e57806323b872dd1461028c578063248a9ca3146102bc576101cf565b806301ffc9a7146101d457806306fdde0314610204578063095ea7b314610222575b600080fd5b6101ee60048036038101906101e99190611df7565b6105dc565b6040516101fb9190611e3f565b60405180910390f35b61020c610656565b6040516102199190611eea565b60405180910390f35b61023c60048036038101906102379190611fa0565b6106e8565b6040516102499190611e3f565b60405180910390f35b61026c60048036038101906102679190612016565b61070b565b005b6102766109b4565b6040516102839190612052565b60405180910390f35b6102a660048036038101906102a1919061206d565b6109be565b6040516102b39190611e3f565b60405180910390f35b6102d660048036038101906102d191906120f6565b6109ed565b6040516102e39190612132565b60405180910390f35b6103066004803603810190610301919061214d565b610a0d565b005b610310610a2e565b60405161031d91906121a9565b60405180910390f35b610340600480360381019061033b919061214d565b610a37565b005b61034a610aba565b6040516103579190612052565b60405180910390f35b61037a60048036038101906103759190611fa0565b610ac0565b6040516103879190611e3f565b60405180910390f35b6103aa60048036038101906103a59190611fa0565b610af7565b005b6103c660048036038101906103c191906121c4565b610b13565b005b6103d0610b7c565b6040516103dd9190612132565b60405180910390f35b61040060048036038101906103fb91906121f1565b610ba0565b60405161040d9190612052565b60405180910390f35b610430600480360381019061042b9190611fa0565b610c09565b005b61043a610c42565b6040516104479190612052565b60405180910390f35b61046a6004803603810190610465919061214d565b610c48565b6040516104779190611e3f565b60405180910390f35b610488610cb3565b6040516104959190611eea565b60405180910390f35b6104b860048036038101906104b391906121f1565b610d45565b005b6104d460048036038101906104cf91906121c4565b610ed3565b005b6104de610f30565b6040516104eb9190612132565b60405180910390f35b61050e60048036038101906105099190611fa0565b610f37565b60405161051b9190611e3f565b60405180910390f35b61052c610fae565b604051610539919061222d565b60405180910390f35b61055c60048036038101906105579190611fa0565b610fd4565b6040516105699190611e3f565b60405180910390f35b61058c6004803603810190610587919061214d565b610ff7565b005b610596611018565b6040516105a39190612132565b60405180910390f35b6105c660048036038101906105c19190612248565b61103c565b6040516105d39190612052565b60405180910390f35b60007f7965db0b000000000000000000000000000000000000000000000000000000007bffffffffffffffffffffffffffffffffffffffffffffffffffffffff1916827bffffffffffffffffffffffffffffffffffffffffffffffffffffffff1916148061064f575061064e826110c3565b5b9050919050565b606060038054610665906122b7565b80601f0160208091040260200160405190810160405280929190818152602001828054610691906122b7565b80156106de5780601f106106b3576101008083540402835291602001916106de565b820191906000526020600020905b8154815290600101906020018083116106c157829003601f168201915b5050505050905090565b6000806106f361112d565b9050610700818585611135565b600191505092915050565b7fc479b43409b05e803d8b6457191b7babf09807901b4b347cc50f1200be1cb631610735816112fe565b600061073f6109b4565b905060008303610789577fb066754eccd07b69cd9664aec031ada7d76fb71f54930e4841446c15b9da0fcb81600060405161077b92919061232d565b60405180910390a1506109b0565b60008084131561085757838261079f9190612385565b90506000612710600854866107b491906123b9565b6107be919061242a565b905060008111801561081f5750600073ffffffffffffffffffffffffffffffffffffffff16600960009054906101000a900473ffffffffffffffffffffffffffffffffffffffff1673ffffffffffffffffffffffffffffffffffffffff1614155b1561085157610850600960009054906101000a900473ffffffffffffffffffffffffffffffffffffffff1682611312565b5b5061086f565b836108619061245b565b8261086c91906124a3565b90505b6000612710600b548461088291906123b9565b61088c919061242a565b9050828211156108e9578083836108a391906124a3565b11156108e4576040517f08c379a00000000000000000000000000000000000000000000000000000000081526004016108db90612549565b60405180910390fd5b610938565b8082846108f691906124a3565b1115610937576040517f08c379a000000000000000000000000000000000000000000000000000000000815260040161092e906125db565b60405180910390fd5b5b81600a81905550600a547fffffffffffffffffffffffffffffffffffffffffffffffffffffffffffffffff61096d919061242a565b6007819055507fb066754eccd07b69cd9664aec031ada7d76fb71f54930e4841446c15b9da0fcb82866040516109a492919061260a565b60405180910390a15050505b5050565b6000600a54905090565b6000806109c961112d565b90506109d68582856114b4565b6109e1858585611540565b60019150509392505050565b600060056000838152602001908152602001600020600101549050919050565b610a16826109ed565b610a1f816112fe565b610a298383611747565b505050565b60006012905090565b610a3f61112d565b73ffffffffffffffffffffffffffffffffffffffff168173ffffffffffffffffffffffffffffffffffffffff1614610aac576040517f08c379a0000000000000000000000000000000000000000000000000000000008152600401610aa3906126a5565b60405180910390fd5b610ab68282611828565b5050565b600b5481565b600080610acb61112d565b9050610aec818585610add858961103c565b610ae79190612385565b611135565b600191505092915050565b6000801b610b04816112fe565b610b0e8383611312565b505050565b6000801b610b20816112fe565b600082118015610b3257506103e88211155b610b71576040517f08c379a0000000000000000000000000000000000000000000000000000000008152600401610b6890612737565b60405180910390fd5b81600b819055505050565b7fc479b43409b05e803d8b6457191b7babf09807901b4b347cc50f1200be1cb63181565b60008060075403610bb45760009050610c04565b600754600660008473ffffffffffffffffffffffffffffffffffffffff1673ffffffffffffffffffffffffffffffffffffffff16815260200190815260200160002054610c01919061242a565b90505b919050565b7f1a22aef9db7f016755e82dde60cb4679c85f5f4f349dab1736b426fa94356485610c33816112fe565b610c3d838361190a565b505050565b60085481565b60006005600084815260200190815260200160002060000160008373ffffffffffffffffffffffffffffffffffffffff1673ffffffffffffffffffffffffffffffffffffffff16815260200190815260200160002060009054906101000a900460ff16905092915050565b606060048054610cc2906122b7565b80601f0160208091040260200160405190810160405280929190818152602001828054610cee906122b7565b8015610d3b5780601f10610d1057610100808354040283529160200191610d3b565b820191906000526020600020905b815481529060010190602001808311610d1e57829003601f168201915b5050505050905090565b6000801b610d52816112fe565b600073ffffffffffffffffffffffffffffffffffffffff168273ffffffffffffffffffffffffffffffffffffffff1603610dc1576040517f08c379a0000000000000000000000000000000000000000000000000000000008152600401610db8906127a3565b60405180910390fd5b600073ffffffffffffffffffffffffffffffffffffffff16600960009054906101000a900473ffffffffffffffffffffffffffffffffffffffff1673ffffffffffffffffffffffffffffffffffffffff1614610e6457610e637f1a22aef9db7f016755e82dde60cb4679c85f5f4f349dab1736b426fa94356485600960009054906101000a900473ffffffffffffffffffffffffffffffffffffffff16611828565b5b81600960006101000a81548173ffffffffffffffffffffffffffffffffffffffff021916908373ffffffffffffffffffffffffffffffffffffffff160217905550610ecf7f1a22aef9db7f016755e82dde60cb4679c85f5f4f349dab1736b426fa9435648583611747565b5050565b6000801b610ee0816112fe565b612710821115610f25576040517f08c379a0000000000000000000000000000000000000000000000000000000008152600401610f1c90612835565b60405180910390fd5b816008819055505050565b6000801b81565b600080610f4261112d565b90506000610f50828661103c565b905083811015610f95576040517f08c379a0000000000000000000000000000000000000000000000000000000008152600401610f8c906128c7565b60405180910390fd5b610fa28286868403611135565b60019250505092915050565b600960009054906101000a900473ffffffffffffffffffffffffffffffffffffffff1681565b600080610fdf61112d565b9050610fec818585611540565b600191505092915050565b611000826109ed565b611009816112fe565b6110138383611828565b505050565b7f1a22aef9db7f016755e82dde60cb4679c85f5f4f349dab1736b426fa9435648581565b6000600160008473ffffffffffffffffffffffffffffffffffffffff1673ffffffffffffffffffffffffffffffffffffffff16815260200190815260200160002060008373ffffffffffffffffffffffffffffffffffffffff1673ffffffffffffffffffffffffffffffffffffffff16815260200190815260200160002054905092915050565b60007f01ffc9a7000000000000000000000000000000000000000000000000000000007bffffffffffffffffffffffffffffffffffffffffffffffffffffffff1916827bffffffffffffffffffffffffffffffffffffffffffffffffffffffff1916149050919050565b600033905090565b600073ffffffffffffffffffffffffffffffffffffffff168373ffffffffffffffffffffffffffffffffffffffff16036111a4576040517f08c379a000000000000000000000000000000000000000000000000000000000815260040161119b90612959565b60405180910390fd5b600073ffffffffffffffffffffffffffffffffffffffff168273ffffffffffffffffffffffffffffffffffffffff1603611213576040517f08c379a000000000000000000000000000000000000000000000000000000000815260040161120a906129eb565b60405180910390fd5b80600160008573ffffffffffffffffffffffffffffffffffffffff1673ffffffffffffffffffffffffffffffffffffffff16815260200190815260200160002060008473ffffffffffffffffffffffffffffffffffffffff1673ffffffffffffffffffffffffffffffffffffffff168152602001908152602001600020819055508173ffffffffffffffffffffffffffffffffffffffff168373ffffffffffffffffffffffffffffffffffffffff167f8c5be1e5ebec7d5bd14f71427d1e84f3dd0314c0f7b2291e5b200ac8c7c3b925836040516112f19190612052565b60405180910390a3505050565b61130f8161130a61112d565b611aac565b50565b600073ffffffffffffffffffffffffffffffffffffffff168273ffffffffffffffffffffffffffffffffffffffff1603611381576040517f08c379a000000000000000000000000000000000000000000000000000000000815260040161137890612a57565b60405180910390fd5b80600a60008282546113939190612385565b925050819055506000600a5411156113de57600a547fffffffffffffffffffffffffffffffffffffffffffffffffffffffffffffffff6113d3919061242a565b6007819055506113e7565b60006007819055505b600754816113f591906123b9565b600660008473ffffffffffffffffffffffffffffffffffffffff1673ffffffffffffffffffffffffffffffffffffffff16815260200190815260200160002060008282546114439190612385565b925050819055508173ffffffffffffffffffffffffffffffffffffffff16600073ffffffffffffffffffffffffffffffffffffffff167fddf252ad1be2c89b69c2b068fc378daa952ba7f163c4a11628f55a4df523b3ef836040516114a89190612052565b60405180910390a35050565b60006114c0848461103c565b90507fffffffffffffffffffffffffffffffffffffffffffffffffffffffffffffffff811461153a578181101561152c576040517f08c379a000000000000000000000000000000000000000000000000000000000815260040161152390612ac3565b60405180910390fd5b6115398484848403611135565b5b50505050565b600073ffffffffffffffffffffffffffffffffffffffff168373ffffffffffffffffffffffffffffffffffffffff16036115af576040517f08c379a00000000000000000000000000000000000000000000000000000000081526004016115a690612b55565b60405180910390fd5b600073ffffffffffffffffffffffffffffffffffffffff168273ffffffffffffffffffffffffffffffffffffffff160361161e576040517f08c379a000000000000000000000000000000000000000000000000000000000815260040161161590612be7565b60405180910390fd5b60006007548261162e91906123b9565b905080600660008673ffffffffffffffffffffffffffffffffffffffff1673ffffffffffffffffffffffffffffffffffffffff168152602001908152602001600020600082825461167f91906124a3565b9250508190555080600660008573ffffffffffffffffffffffffffffffffffffffff1673ffffffffffffffffffffffffffffffffffffffff16815260200190815260200160002060008282546116d59190612385565b925050819055508273ffffffffffffffffffffffffffffffffffffffff168473ffffffffffffffffffffffffffffffffffffffff167fddf252ad1be2c89b69c2b068fc378daa952ba7f163c4a11628f55a4df523b3ef846040516117399190612052565b60405180910390a350505050565b6117518282610c48565b6118245760016005600084815260200190815260200160002060000160008373ffffffffffffffffffffffffffffffffffffffff1673ffffffffffffffffffffffffffffffffffffffff16815260200190815260200160002060006101000a81548160ff0219169083151502179055506117c961112d565b73ffffffffffffffffffffffffffffffffffffffff168173ffffffffffffffffffffffffffffffffffffffff16837f2f8788117e7eff1d82e926ec794901d17c78024a50270940304540a733656f0d60405160405180910390a45b5050565b6118328282610c48565b156119065760006005600084815260200190815260200160002060000160008373ffffffffffffffffffffffffffffffffffffffff1673ffffffffffffffffffffffffffffffffffffffff16815260200190815260200160002060006101000a81548160ff0219169083151502179055506118ab61112d565b73ffffffffffffffffffffffffffffffffffffffff168173ffffffffffffffffffffffffffffffffffffffff16837ff6391f5c32d9c69d2a47ea670b442974b53935d1edc7fd64eb21e047a839171b60405160405180910390a45b5050565b600073ffffffffffffffffffffffffffffffffffffffff168273ffffffffffffffffffffffffffffffffffffffff1603611979576040517f08c379a000000000000000000000000000000000000000000000000000000000815260040161197090612c79565b60405180910390fd5b80600a600082825461198b91906124a3565b925050819055506000600a5411156119d657600a547fffffffffffffffffffffffffffffffffffffffffffffffffffffffffffffffff6119cb919061242a565b6007819055506119df565b60006007819055505b600754816119ed91906123b9565b600660008473ffffffffffffffffffffffffffffffffffffffff1673ffffffffffffffffffffffffffffffffffffffff1681526020019081526020016000206000828254611a3b91906124a3565b92505081905550600073ffffffffffffffffffffffffffffffffffffffff168273ffffffffffffffffffffffffffffffffffffffff167fddf252ad1be2c89b69c2b068fc378daa952ba7f163c4a11628f55a4df523b3ef83604051611aa09190612052565b60405180910390a35050565b611ab68282610c48565b611b2d57611ac381611b31565b611ad18360001c6020611b5e565b604051602001611ae2929190612d6d565b6040516020818303038152906040526040517f08c379a0000000000000000000000000000000000000000000000000000000008152600401611b249190611eea565b60405180910390fd5b5050565b6060611b578273ffffffffffffffffffffffffffffffffffffffff16601460ff16611b5e565b9050919050565b606060006002836002611b7191906123b9565b611b7b9190612385565b67ffffffffffffffff811115611b9457611b93612da7565b5b6040519080825280601f01601f191660200182016040528015611bc65781602001600182028036833780820191505090505b5090507f300000000000000000000000000000000000000000000000000000000000000081600081518110611bfe57611bfd612dd6565b5b60200101907effffffffffffffffffffffffffffffffffffffffffffffffffffffffffffff1916908160001a9053507f780000000000000000000000000000000000000000000000000000000000000081600181518110611c6257611c61612dd6565b5b60200101907effffffffffffffffffffffffffffffffffffffffffffffffffffffffffffff1916908160001a90535060006001846002611ca291906123b9565b611cac9190612385565b90505b6001811115611d4c577f3031323334353637383961626364656600000000000000000000000000000000600f861660108110611cee57611ced612dd6565b5b1a60f81b828281518110611d0557611d04612dd6565b5b60200101907effffffffffffffffffffffffffffffffffffffffffffffffffffffffffffff1916908160001a905350600485901c945080611d4590612e05565b9050611caf565b5060008414611d90576040517f08c379a0000000000000000000000000000000000000000000000000000000008152600401611d8790612e7a565b60405180910390fd5b8091505092915050565b600080fd5b60007fffffffff0000000000000000000000000000000000000000000000000000000082169050919050565b611dd481611d9f565b8114611ddf57600080fd5b50565b600081359050611df181611dcb565b92915050565b600060208284031215611e0d57611e0c611d9a565b5b6000611e1b84828501611de2565b91505092915050565b60008115159050919050565b611e3981611e24565b82525050565b6000602082019050611e546000830184611e30565b92915050565b600081519050919050565b600082825260208201905092915050565b60005b83811015611e94578082015181840152602081019050611e79565b60008484015250505050565b6000601f19601f8301169050919050565b6000611ebc82611e5a565b611ec68185611e65565b9350611ed6818560208601611e76565b611edf81611ea0565b840191505092915050565b60006020820190508181036000830152611f048184611eb1565b905092915050565b600073ffffffffffffffffffffffffffffffffffffffff82169050919050565b6000611f3782611f0c565b9050919050565b611f4781611f2c565b8114611f5257600080fd5b50565b600081359050611f6481611f3e565b92915050565b6000819050919050565b611f7d81611f6a565b8114611f8857600080fd5b50565b600081359050611f9a81611f74565b92915050565b60008060408385031215611fb757611fb6611d9a565b5b6000611fc585828601611f55565b9250506020611fd685828601611f8b565b9150509250929050565b6000819050919050565b611ff381611fe0565b8114611ffe57600080fd5b50565b60008135905061201081611fea565b92915050565b60006020828403121561202c5761202b611d9a565b5b600061203a84828501612001565b91505092915050565b61204c81611f6a565b82525050565b60006020820190506120676000830184612043565b92915050565b60008060006060848603121561208657612085611d9a565b5b600061209486828701611f55565b93505060206120a586828701611f55565b92505060406120b686828701611f8b565b9150509250925092565b6000819050919050565b6120d3816120c0565b81146120de57600080fd5b50565b6000813590506120f0816120ca565b92915050565b60006020828403121561210c5761210b611d9a565b5b600061211a848285016120e1565b91505092915050565b61212c816120c0565b82525050565b60006020820190506121476000830184612123565b92915050565b6000806040838503121561216457612163611d9a565b5b6000612172858286016120e1565b925050602061218385828601611f55565b9150509250929050565b600060ff82169050919050565b6121a38161218d565b82525050565b60006020820190506121be600083018461219a565b92915050565b6000602082840312156121da576121d9611d9a565b5b60006121e884828501611f8b565b91505092915050565b60006020828403121561220757612206611d9a565b5b600061221584828501611f55565b91505092915050565b61222781611f2c565b82525050565b6000602082019050612242600083018461221e565b92915050565b6000806040838503121561225f5761225e611d9a565b5b600061226d85828601611f55565b925050602061227e85828601611f55565b9150509250929050565b7f4e487b7100000000000000000000000000000000000000000000000000000000600052602260045260246000fd5b600060028204905060018216806122cf57607f821691505b6020821081036122e2576122e1612288565b5b50919050565b6000819050919050565b6000819050919050565b600061231761231261230d846122e8565b6122f2565b611fe0565b9050919050565b612327816122fc565b82525050565b60006040820190506123426000830185612043565b61234f602083018461231e565b9392505050565b7f4e487b7100000000000000000000000000000000000000000000000000000000600052601160045260246000fd5b600061239082611f6a565b915061239b83611f6a565b92508282019050808211156123b3576123b2612356565b5b92915050565b60006123c482611f6a565b91506123cf83611f6a565b92508282026123dd81611f6a565b915082820484148315176123f4576123f3612356565b5b5092915050565b7f4e487b7100000000000000000000000000000000000000000000000000000000600052601260045260246000fd5b600061243582611f6a565b915061244083611f6a565b9250826124505761244f6123fb565b5b828204905092915050565b600061246682611fe0565b91507f8000000000000000000000000000000000000000000000000000000000000000820361249857612497612356565b5b816000039050919050565b60006124ae82611f6a565b91506124b983611f6a565b92508282039050818111156124d1576124d0612356565b5b92915050565b7f48616c6f6d546f6b656e3a20537570706c7920696e63726561736520746f6f2060008201527f6c61726765000000000000000000000000000000000000000000000000000000602082015250565b6000612533602583611e65565b915061253e826124d7565b604082019050919050565b6000602082019050818103600083015261256281612526565b9050919050565b7f48616c6f6d546f6b656e3a20537570706c7920646563726561736520746f6f2060008201527f6c61726765000000000000000000000000000000000000000000000000000000602082015250565b60006125c5602583611e65565b91506125d082612569565b604082019050919050565b600060208201905081810360008301526125f4816125b8565b9050919050565b61260481611fe0565b82525050565b600060408201905061261f6000830185612043565b61262c60208301846125fb565b9392505050565b7f416363657373436f6e74726f6c3a2063616e206f6e6c792072656e6f756e636560008201527f20726f6c657320666f722073656c660000000000000000000000000000000000602082015250565b600061268f602f83611e65565b915061269a82612633565b604082019050919050565b600060208201905081810360008301526126be81612682565b9050919050565b7f48616c6f6d546f6b656e3a2044656c7461206d7573742062652062657477656560008201527f6e20302e30312520616e64203130250000000000000000000000000000000000602082015250565b6000612721602f83611e65565b915061272c826126c5565b604082019050919050565b6000602082019050818103600083015261275081612714565b9050919050565b7f48616c6f6d546f6b656e3a205a65726f20616464726573730000000000000000600082015250565b600061278d601883611e65565b915061279882612757565b602082019050919050565b600060208201905081810360008301526127bc81612780565b9050919050565b7f48616c6f6d546f6b656e3a20526174652063616e6e6f7420657863656564203160008201527f3030250000000000000000000000000000000000000000000000000000000000602082015250565b600061281f602383611e65565b915061282a826127c3565b604082019050919050565b6000602082019050818103600083015261284e81612812565b9050919050565b7f45524332303a2064656372656173656420616c6c6f77616e63652062656c6f7760008201527f207a65726f000000000000000000000000000000000000000000000000000000602082015250565b60006128b1602583611e65565b91506128bc82612855565b604082019050919050565b600060208201905081810360008301526128e0816128a4565b9050919050565b7f45524332303a20617070726f76652066726f6d20746865207a65726f2061646460008201527f7265737300000000000000000000000000000000000000000000000000000000602082015250565b6000612943602483611e65565b915061294e826128e7565b604082019050919050565b6000602082019050818103600083015261297281612936565b9050919050565b7f45524332303a20617070726f766520746f20746865207a65726f20616464726560008201527f7373000000000000000000000000000000000000000000000000000000000000602082015250565b60006129d5602283611e65565b91506129e082612979565b604082019050919050565b60006020820190508181036000830152612a04816129c8565b9050919050565b7f45524332303a206d696e7420746f20746865207a65726f206164647265737300600082015250565b6000612a41601f83611e65565b9150612a4c82612a0b565b602082019050919050565b60006020820190508181036000830152612a7081612a34565b9050919050565b7f45524332303a20696e73756666696369656e7420616c6c6f77616e6365000000600082015250565b6000612aad601d83611e65565b9150612ab882612a77565b602082019050919050565b60006020820190508181036000830152612adc81612aa0565b9050919050565b7f45524332303a207472616e736665722066726f6d20746865207a65726f20616460008201527f6472657373000000000000000000000000000000000000000000000000000000602082015250565b6000612b3f602583611e65565b9150612b4a82612ae3565b604082019050919050565b60006020820190508181036000830152612b6e81612b32565b9050919050565b7f45524332303a207472616e7366657220746f20746865207a65726f206164647260008201527f6573730000000000000000000000000000000000000000000000000000000000602082015250565b6000612bd1602383611e65565b9150612bdc82612b75565b604082019050919050565b60006020820190508181036000830152612c0081612bc4565b9050919050565b7f45524332303a206275726e2066726f6d20746865207a65726f2061646472657360008201527f7300000000000000000000000000000000000000000000000000000000000000602082015250565b6000612c63602183611e65565b9150612c6e82612c07565b604082019050919050565b60006020820190508181036000830152612c9281612c56565b9050919050565b600081905092915050565b7f416363657373436f6e74726f6c3a206163636f756e7420000000000000000000600082015250565b6000612cda601783612c99565b9150612ce582612ca4565b601782019050919050565b6000612cfb82611e5a565b612d058185612c99565b9350612d15818560208601611e76565b80840191505092915050565b7f206973206d697373696e6720726f6c6520000000000000000000000000000000600082015250565b6000612d57601183612c99565b9150612d6282612d21565b601182019050919050565b6000612d7882612ccd565b9150612d848285612cf0565b9150612d8f82612d4a565b9150612d9b8284612cf0565b91508190509392505050565b7f4e487b7100000000000000000000000000000000000000000000000000000000600052604160045260246000fd5b7f4e487b7100000000000000000000000000000000000000000000000000000000600052603260045260246000fd5b6000612e1082611f6a565b915060008203612e2357612e22612356565b5b600182039050919050565b7f537472696e67733a20686578206c656e67746820696e73756666696369656e74600082015250565b6000612e64602083611e65565b9150612e6f82612e2e565b602082019050919050565b60006020820190508181036000830152612e9381612e57565b905091905056fea2646970667358221220fdf64e1e46cb6d0474820a2c7772bdc9f3b5d8557bf7a20980fd95835e0047ec64736f6c63430008140033",
  "linkReferences": {},
  "deployedLinkReferences": {}
}